{
    "contractName": "CarData",
    "abi": [
        {
            "inputs": [
                {
                    "internalType": "string",
                    "name": "_VIN",
                    "type": "string"
                },
                {
                    "internalType": "string",
                    "name": "_brand",
                    "type": "string"
                },
                {
                    "internalType": "string",
                    "name": "_model",
                    "type": "string"
                },
                {
                    "internalType": "uint24",
                    "name": "_kilometraje",
                    "type": "uint24"
                },
                {
                    "internalType": "string",
                    "name": "_ipfsMetaData",
                    "type": "string"
                }
            ],
            "stateMutability": "nonpayable",
            "type": "constructor"
        },
        {
            "anonymous": false,
            "inputs": [
                {
                    "indexed": true,
                    "internalType": "address",
                    "name": "previousOwner",
                    "type": "address"
                },
                {
                    "indexed": true,
                    "internalType": "address",
                    "name": "newOwner",
                    "type": "address"
                }
            ],
            "name": "OwnershipTransferred",
            "type": "event"
        },
        {
            "anonymous": false,
            "inputs": [],
            "name": "Sale",
            "type": "event"
        },
        {
            "anonymous": false,
            "inputs": [],
            "name": "bid",
            "type": "event"
        },
        {
            "anonymous": false,
            "inputs": [],
            "name": "sold",
            "type": "event"
        },
        {
            "inputs": [
                {
                    "internalType": "uint256",
                    "name": "_price",
                    "type": "uint256"
                }
            ],
            "name": "List",
            "outputs": [],
            "stateMutability": "nonpayable",
            "type": "function"
        },
        {
            "inputs": [],
            "name": "VIN",
            "outputs": [
                {
                    "internalType": "string",
                    "name": "",
                    "type": "string"
                }
            ],
            "stateMutability": "view",
            "type": "function"
        },
        {
            "inputs": [],
            "name": "brand",
            "outputs": [
                {
                    "internalType": "string",
                    "name": "",
                    "type": "string"
                }
            ],
            "stateMutability": "view",
            "type": "function"
        },
        {
            "inputs": [],
            "name": "ipfsMetaData",
            "outputs": [
                {
                    "internalType": "string",
                    "name": "",
                    "type": "string"
                }
            ],
            "stateMutability": "view",
            "type": "function"
        },
        {
            "inputs": [],
            "name": "kilometraje",
            "outputs": [
                {
                    "internalType": "uint24",
                    "name": "",
                    "type": "uint24"
                }
            ],
            "stateMutability": "view",
            "type": "function"
        },
        {
            "inputs": [],
            "name": "model",
            "outputs": [
                {
                    "internalType": "string",
                    "name": "",
                    "type": "string"
                }
            ],
            "stateMutability": "view",
            "type": "function"
        },
        {
            "inputs": [
                {
                    "internalType": "uint256",
                    "name": "",
                    "type": "uint256"
                }
            ],
            "name": "offers",
            "outputs": [
                {
                    "internalType": "address",
                    "name": "buyer",
                    "type": "address"
                },
                {
                    "internalType": "uint256",
                    "name": "bid",
                    "type": "uint256"
                }
            ],
            "stateMutability": "view",
            "type": "function"
        },
        {
            "inputs": [],
            "name": "owner",
            "outputs": [
                {
                    "internalType": "address",
                    "name": "",
                    "type": "address"
                }
            ],
            "stateMutability": "view",
            "type": "function"
        },
        {
            "inputs": [
                {
                    "internalType": "uint256",
                    "name": "_bid",
                    "type": "uint256"
                }
            ],
            "name": "placeBid",
            "outputs": [],
            "stateMutability": "payable",
            "type": "function"
        },
        {
            "inputs": [],
            "name": "price",
            "outputs": [
                {
                    "internalType": "uint256",
                    "name": "",
                    "type": "uint256"
                }
            ],
            "stateMutability": "view",
            "type": "function"
        },
        {
            "inputs": [],
            "name": "renounceOwnership",
            "outputs": [],
            "stateMutability": "nonpayable",
            "type": "function"
        },
        {
            "inputs": [
                {
                    "internalType": "uint256",
                    "name": "i",
                    "type": "uint256"
                }
            ],
            "name": "sell",
            "outputs": [],
            "stateMutability": "nonpayable",
            "type": "function"
        },
        {
            "inputs": [
                {
                    "internalType": "address",
                    "name": "newOwner",
                    "type": "address"
                }
            ],
            "name": "transferOwnership",
            "outputs": [],
            "stateMutability": "nonpayable",
            "type": "function"
        }
    ],
    "bytecode": "60806040523480156200001157600080fd5b5060405162000dad38038062000dad833981016040819052620000349162000283565b6200003f33620000c0565b84516200005490600390602088019062000110565b5083516200006a90600490602087019062000110565b5082516200008090600590602086019062000110565b506006805462ffffff191662ffffff84161790558051620000a990600790602084019062000110565b5050600a805460ff19169055506200039692505050565b600080546001600160a01b038381166001600160a01b0319831681178455604051919092169283917f8be0079c531659141344cd1fd0a4f28419497f9722a3daafe3b4186f6b6457e09190a35050565b8280546200011e9062000359565b90600052602060002090601f0160209004810192826200014257600085556200018d565b82601f106200015d57805160ff19168380011785556200018d565b828001600101855582156200018d579182015b828111156200018d57825182559160200191906001019062000170565b506200019b9291506200019f565b5090565b5b808211156200019b5760008155600101620001a0565b634e487b7160e01b600052604160045260246000fd5b600082601f830112620001de57600080fd5b81516001600160401b0380821115620001fb57620001fb620001b6565b604051601f8301601f19908116603f01168101908282118183101715620002265762000226620001b6565b816040528381526020925086838588010111156200024357600080fd5b600091505b8382101562000267578582018301518183018401529082019062000248565b83821115620002795760008385830101525b9695505050505050565b600080600080600060a086880312156200029c57600080fd5b85516001600160401b0380821115620002b457600080fd5b620002c289838a01620001cc565b96506020880151915080821115620002d957600080fd5b620002e789838a01620001cc565b95506040880151915080821115620002fe57600080fd5b6200030c89838a01620001cc565b94506060880151915062ffffff821682146200032757600080fd5b6080880151919350808211156200033d57600080fd5b506200034c88828901620001cc565b9150509295509295909350565b600181811c908216806200036e57607f821691505b602082108114156200039057634e487b7160e01b600052602260045260246000fd5b50919050565b610a0780620003a66000396000f3fe6080604052600436106100c25760003560e01c80638a72ea6a1161007f578063a035b1fe11610059578063a035b1fe146101f2578063dd11eaf214610216578063e4849b3214610236578063f2fde38b1461025657600080fd5b80638a72ea6a146101785780638da5cb5b146101b75780639979ef45146101df57600080fd5b80630ad9d052146100c75780630e56ad06146100f25780632d9fff01146101225780633275e4771461013757806342ed5a8e1461014c578063715018a614610161575b600080fd5b3480156100d357600080fd5b506100dc610276565b6040516100e991906107d9565b60405180910390f35b3480156100fe57600080fd5b5060065461010e9062ffffff1681565b60405162ffffff90911681526020016100e9565b34801561012e57600080fd5b506100dc610304565b34801561014357600080fd5b506100dc610311565b34801561015857600080fd5b506100dc61031e565b34801561016d57600080fd5b5061017661032b565b005b34801561018457600080fd5b5061019861019336600461082e565b61036a565b604080516001600160a01b0390931683526020830191909152016100e9565b3480156101c357600080fd5b506000546040516001600160a01b0390911681526020016100e9565b6101766101ed36600461082e565b6103a2565b3480156101fe57600080fd5b5061020860085481565b6040519081526020016100e9565b34801561022257600080fd5b5061017661023136600461082e565b6104b2565b34801561024257600080fd5b5061017661025136600461082e565b61051a565b34801561026257600080fd5b50610176610271366004610847565b61064e565b6005805461028390610877565b80601f01602080910402602001604051908101604052809291908181526020018280546102af90610877565b80156102fc5780601f106102d1576101008083540402835291602001916102fc565b820191906000526020600020905b8154815290600101906020018083116102df57829003601f168201915b505050505081565b6004805461028390610877565b6007805461028390610877565b6003805461028390610877565b6000546001600160a01b0316331461035e5760405162461bcd60e51b8152600401610355906108b2565b60405180910390fd5b61036860006106e9565b565b6009818154811061037a57600080fd5b6000918252602090912060029091020180546001909101546001600160a01b03909116915082565b6001600a5460ff1660038111156103bb576103bb6108e7565b146103c557600080fd5b600060026008546103d691906108fd565b9050803410156103e557600080fd5b6040805180820182523381526020810184815260098054600181018255600091825292517f6e1540171b6c0c960b71a7020d9f60077f6af931a8bbf590da0223dacf75c7af600294850290810180546001600160a01b0319166001600160a01b039093169290921790915591517f6e1540171b6c0c960b71a7020d9f60077f6af931a8bbf590da0223dacf75c7b090920191909155600a805460ff191690921790915590517f1998aeef58ff11c1b0cba8a5c3d545e310bc8c53fe0e1219158b69fc798bfebd9190a15050565b6000546001600160a01b031633146104dc5760405162461bcd60e51b8152600401610355906108b2565b6008819055600a805460ff191660011790556040517fb78f9de73ca0069a2bfc6463635707582269ea0b35047249542a65a7116dbee690600090a150565b6000546001600160a01b031633146105445760405162461bcd60e51b8152600401610355906108b2565b6002600a5460ff16600381111561055d5761055d6108e7565b1461056757600080fd5b60006009828154811061057c5761057c61091f565b60009182526020909120600290910201546040516001600160a01b03909116915081906001906105ae90600390610935565b908152604080516020928190038301902080546001600160a01b0319166001600160a01b03948516179055918316600090815260028252918220805460018101825590835291206003805491909201919061060890610877565b610613929190610739565b50600a805460ff191660031790556040517f02c7e7afb4ec6b98852b343f3f1bb58ceab154308ee28a0c0d44693f92e7bb4f90600090a15050565b6000546001600160a01b031633146106785760405162461bcd60e51b8152600401610355906108b2565b6001600160a01b0381166106dd5760405162461bcd60e51b815260206004820152602660248201527f4f776e61626c653a206e6577206f776e657220697320746865207a65726f206160448201526564647265737360d01b6064820152608401610355565b6106e6816106e9565b50565b600080546001600160a01b038381166001600160a01b0319831681178455604051919092169283917f8be0079c531659141344cd1fd0a4f28419497f9722a3daafe3b4186f6b6457e09190a35050565b82805461074590610877565b90600052602060002090601f01602090048101928261076757600085556107b4565b82601f1061077857805485556107b4565b828001600101855582156107b457600052602060002091601f016020900482015b828111156107b4578254825591600101919060010190610799565b506107c09291506107c4565b5090565b5b808211156107c057600081556001016107c5565b600060208083528351808285015260005b81811015610806578581018301518582016040015282016107ea565b81811115610818576000604083870101525b50601f01601f1916929092016040019392505050565b60006020828403121561084057600080fd5b5035919050565b60006020828403121561085957600080fd5b81356001600160a01b038116811461087057600080fd5b9392505050565b600181811c9082168061088b57607f821691505b602082108114156108ac57634e487b7160e01b600052602260045260246000fd5b50919050565b6020808252818101527f4f776e61626c653a2063616c6c6572206973206e6f7420746865206f776e6572604082015260600190565b634e487b7160e01b600052602160045260246000fd5b60008261091a57634e487b7160e01b600052601260045260246000fd5b500490565b634e487b7160e01b600052603260045260246000fd5b600080835481600182811c91508083168061095157607f831692505b602080841082141561097157634e487b7160e01b86526022600452602486fd5b8180156109855760018114610996576109c3565b60ff198616895284890196506109c3565b60008a81526020902060005b868110156109bb5781548b8201529085019083016109a2565b505084890196505b50949897505050505050505056fea26469706673582212204451dc8d6bc8b57a9f4d8543f89bb3c9b2a6613d56fc4ad2a227cb88f5325b9b64736f6c634300080b0033",
    "sourcePath": "c:/Users/ruben/Documents/dCars/contracts/CarData.sol",
    "compiler": {
        "name": "solc",
        "version": "0.8.11+commit.d7f03943"
    },
    "functionHashes": {
        "List(uint256)": "dd11eaf2",
        "VIN()": "42ed5a8e",
        "brand()": "2d9fff01",
        "ipfsMetaData()": "3275e477",
        "kilometraje()": "0e56ad06",
        "model()": "0ad9d052",
        "offers(uint256)": "8a72ea6a",
        "owner()": "8da5cb5b",
        "placeBid(uint256)": "9979ef45",
        "price()": "a035b1fe",
        "renounceOwnership()": "715018a6",
        "sell(uint256)": "e4849b32",
        "transferOwnership(address)": "f2fde38b"
    },
    "gasEstimates": {
        "creation": {
            "codeDepositCost": "513400",
            "executionCost": "infinite",
            "totalCost": "infinite"
        },
        "external": {
            "List(uint256)": "49508",
            "VIN()": "infinite",
            "brand()": "infinite",
            "ipfsMetaData()": "infinite",
            "kilometraje()": "2336",
            "model()": "infinite",
            "offers(uint256)": "6796",
            "owner()": "2346",
            "placeBid(uint256)": "100331",
            "price()": "2317",
            "renounceOwnership()": "28225",
            "sell(uint256)": "infinite",
            "transferOwnership(address)": "28362"
        }
    }
}