{
  "contractName": "CarData",
  "abi": [
    {
      "inputs": [
        {
          "internalType": "string",
          "name": "_VIN",
          "type": "string"
        },
        {
          "internalType": "string",
          "name": "_brand",
          "type": "string"
        },
        {
          "internalType": "string",
          "name": "_model",
          "type": "string"
        },
        {
          "internalType": "uint24",
          "name": "_kilometraje",
          "type": "uint24"
        },
        {
          "internalType": "string",
          "name": "_ipfsMetaData",
          "type": "string"
        }
      ],
      "stateMutability": "nonpayable",
      "type": "constructor"
    },
    {
      "anonymous": false,
      "inputs": [
        {
          "indexed": true,
          "internalType": "address",
          "name": "previousOwner",
          "type": "address"
        },
        {
          "indexed": true,
          "internalType": "address",
          "name": "newOwner",
          "type": "address"
        }
      ],
      "name": "OwnershipTransferred",
      "type": "event"
    },
    {
      "anonymous": false,
      "inputs": [],
      "name": "Sale",
      "type": "event"
    },
    {
      "anonymous": false,
      "inputs": [],
      "name": "bid",
      "type": "event"
    },
    {
      "anonymous": false,
      "inputs": [],
      "name": "sold",
      "type": "event"
    },
    {
      "inputs": [],
      "name": "VIN",
      "outputs": [
        {
          "internalType": "string",
          "name": "",
          "type": "string"
        }
      ],
      "stateMutability": "view",
      "type": "function",
      "constant": true
    },
    {
      "inputs": [],
      "name": "brand",
      "outputs": [
        {
          "internalType": "string",
          "name": "",
          "type": "string"
        }
      ],
      "stateMutability": "view",
      "type": "function",
      "constant": true
    },
    {
      "inputs": [],
      "name": "ipfsMetaData",
      "outputs": [
        {
          "internalType": "string",
          "name": "",
          "type": "string"
        }
      ],
      "stateMutability": "view",
      "type": "function",
      "constant": true
    },
    {
      "inputs": [],
      "name": "kilometraje",
      "outputs": [
        {
          "internalType": "uint24",
          "name": "",
          "type": "uint24"
        }
      ],
      "stateMutability": "view",
      "type": "function",
      "constant": true
    },
    {
      "inputs": [],
      "name": "model",
      "outputs": [
        {
          "internalType": "string",
          "name": "",
          "type": "string"
        }
      ],
      "stateMutability": "view",
      "type": "function",
      "constant": true
    },
    {
      "inputs": [],
      "name": "owner",
      "outputs": [
        {
          "internalType": "address",
          "name": "",
          "type": "address"
        }
      ],
      "stateMutability": "view",
      "type": "function",
      "constant": true
    },
    {
      "inputs": [],
      "name": "price",
      "outputs": [
        {
          "internalType": "uint256",
          "name": "",
          "type": "uint256"
        }
      ],
      "stateMutability": "view",
      "type": "function",
      "constant": true
    },
    {
      "inputs": [],
      "name": "renounceOwnership",
      "outputs": [],
      "stateMutability": "nonpayable",
      "type": "function"
    },
    {
      "inputs": [
        {
          "internalType": "address",
          "name": "newOwner",
          "type": "address"
        }
      ],
      "name": "transferOwnership",
      "outputs": [],
      "stateMutability": "nonpayable",
      "type": "function"
    },
    {
      "inputs": [
        {
          "internalType": "uint256",
          "name": "_price",
          "type": "uint256"
        }
      ],
      "name": "List",
      "outputs": [],
      "stateMutability": "nonpayable",
      "type": "function"
    },
    {
      "inputs": [
        {
          "internalType": "uint256",
          "name": "_bid",
          "type": "uint256"
        }
      ],
      "name": "placeBid",
      "outputs": [],
      "stateMutability": "payable",
      "type": "function",
      "payable": true
    },
    {
      "inputs": [
        {
          "internalType": "uint256",
          "name": "i",
          "type": "uint256"
        }
      ],
      "name": "sell",
      "outputs": [],
      "stateMutability": "nonpayable",
      "type": "function"
    },
    {
      "inputs": [],
      "name": "getOffers",
      "outputs": [
        {
          "internalType": "uint256",
          "name": "",
          "type": "uint256"
        }
      ],
      "stateMutability": "view",
      "type": "function",
      "constant": true
    },
    {
      "inputs": [
        {
          "internalType": "uint256",
          "name": "i",
          "type": "uint256"
        }
      ],
      "name": "showOffer",
      "outputs": [
        {
          "components": [
            {
              "internalType": "address",
              "name": "buyer",
              "type": "address"
            },
            {
              "internalType": "uint256",
              "name": "bid",
              "type": "uint256"
            }
          ],
          "internalType": "struct CarData.offer",
          "name": "",
          "type": "tuple"
        }
      ],
      "stateMutability": "view",
      "type": "function",
      "constant": true
    }
  ],
  "bytecode": "0x608060405260006004553480156200001657600080fd5b5060405162001a1838038062001a1883398181016040528101906200003c919062000471565b6200005c620000506200011860201b60201c565b6200012060201b60201c565b846005908051906020019062000074929190620001e4565b5083600690805190602001906200008d929190620001e4565b508260079080519060200190620000a6929190620001e4565b5081600860006101000a81548162ffffff021916908362ffffff1602179055508060099080519060200190620000de929190620001e4565b506000600b60006101000a81548160ff0219169083600281111562000108576200010762000575565b5b0217905550505050505062000609565b600033905090565b60008060009054906101000a900473ffffffffffffffffffffffffffffffffffffffff169050816000806101000a81548173ffffffffffffffffffffffffffffffffffffffff021916908373ffffffffffffffffffffffffffffffffffffffff1602179055508173ffffffffffffffffffffffffffffffffffffffff168173ffffffffffffffffffffffffffffffffffffffff167f8be0079c531659141344cd1fd0a4f28419497f9722a3daafe3b4186f6b6457e060405160405180910390a35050565b828054620001f290620005d3565b90600052602060002090601f01602090048101928262000216576000855562000262565b82601f106200023157805160ff191683800117855562000262565b8280016001018555821562000262579182015b828111156200026157825182559160200191906001019062000244565b5b50905062000271919062000275565b5090565b5b808211156200029057600081600090555060010162000276565b5090565b6000604051905090565b600080fd5b600080fd5b600080fd5b600080fd5b6000601f19601f8301169050919050565b7f4e487b7100000000000000000000000000000000000000000000000000000000600052604160045260246000fd5b620002fd82620002b2565b810181811067ffffffffffffffff821117156200031f576200031e620002c3565b5b80604052505050565b60006200033462000294565b9050620003428282620002f2565b919050565b600067ffffffffffffffff821115620003655762000364620002c3565b5b6200037082620002b2565b9050602081019050919050565b60005b838110156200039d57808201518184015260208101905062000380565b83811115620003ad576000848401525b50505050565b6000620003ca620003c48462000347565b62000328565b905082815260208101848484011115620003e957620003e8620002ad565b5b620003f68482856200037d565b509392505050565b600082601f830112620004165762000415620002a8565b5b815162000428848260208601620003b3565b91505092915050565b600062ffffff82169050919050565b6200044b8162000431565b81146200045757600080fd5b50565b6000815190506200046b8162000440565b92915050565b600080600080600060a0868803121562000490576200048f6200029e565b5b600086015167ffffffffffffffff811115620004b157620004b0620002a3565b5b620004bf88828901620003fe565b955050602086015167ffffffffffffffff811115620004e357620004e2620002a3565b5b620004f188828901620003fe565b945050604086015167ffffffffffffffff811115620005155762000514620002a3565b5b6200052388828901620003fe565b935050606062000536888289016200045a565b925050608086015167ffffffffffffffff8111156200055a5762000559620002a3565b5b6200056888828901620003fe565b9150509295509295909350565b7f4e487b7100000000000000000000000000000000000000000000000000000000600052602160045260246000fd5b7f4e487b7100000000000000000000000000000000000000000000000000000000600052602260045260246000fd5b60006002820490506001821680620005ec57607f821691505b60208210811415620006035762000602620005a4565b5b50919050565b6113ff80620006196000396000f3fe6080604052600436106100dd5760003560e01c8063715018a61161007f578063a035b1fe11610059578063a035b1fe1461027f578063dd11eaf2146102aa578063e4849b32146102d3578063f2fde38b146102fc576100dd565b8063715018a6146102215780638da5cb5b146102385780639979ef4514610263576100dd565b80632d9fff01116100bb5780632d9fff01146101755780633275e477146101a05780633ee992ee146101cb57806342ed5a8e146101f6576100dd565b8063017716dc146100e25780630ad9d0521461011f5780630e56ad061461014a575b600080fd5b3480156100ee57600080fd5b5061010960048036038101906101049190610e11565b610325565b6040516101169190610ebd565b60405180910390f35b34801561012b57600080fd5b506101346103d8565b6040516101419190610f71565b60405180910390f35b34801561015657600080fd5b5061015f610466565b60405161016c9190610fb1565b60405180910390f35b34801561018157600080fd5b5061018a61047b565b6040516101979190610f71565b60405180910390f35b3480156101ac57600080fd5b506101b5610509565b6040516101c29190610f71565b60405180910390f35b3480156101d757600080fd5b506101e0610597565b6040516101ed9190610fdb565b60405180910390f35b34801561020257600080fd5b5061020b6105a1565b6040516102189190610f71565b60405180910390f35b34801561022d57600080fd5b5061023661062f565b005b34801561024457600080fd5b5061024d6106b7565b60405161025a9190611005565b60405180910390f35b61027d60048036038101906102789190610e11565b6106e0565b005b34801561028b57600080fd5b50610294610822565b6040516102a19190610fdb565b60405180910390f35b3480156102b657600080fd5b506102d160048036038101906102cc9190610e11565b610828565b005b3480156102df57600080fd5b506102fa60048036038101906102f59190610e11565b610905565b005b34801561030857600080fd5b50610323600480360381019061031e919061104c565b610bb0565b005b61032d610da6565b60045460018361033d91906110a8565b1061034757600080fd5b6003600060018461035891906110a8565b81526020019081526020016000206040518060400160405290816000820160009054906101000a900473ffffffffffffffffffffffffffffffffffffffff1673ffffffffffffffffffffffffffffffffffffffff1673ffffffffffffffffffffffffffffffffffffffff1681526020016001820154815250509050919050565b600780546103e59061110b565b80601f01602080910402602001604051908101604052809291908181526020018280546104119061110b565b801561045e5780601f106104335761010080835404028352916020019161045e565b820191906000526020600020905b81548152906001019060200180831161044157829003601f168201915b505050505081565b600860009054906101000a900462ffffff1681565b600680546104889061110b565b80601f01602080910402602001604051908101604052809291908181526020018280546104b49061110b565b80156105015780601f106104d657610100808354040283529160200191610501565b820191906000526020600020905b8154815290600101906020018083116104e457829003601f168201915b505050505081565b600980546105169061110b565b80601f01602080910402602001604051908101604052809291908181526020018280546105429061110b565b801561058f5780601f106105645761010080835404028352916020019161058f565b820191906000526020600020905b81548152906001019060200180831161057257829003601f168201915b505050505081565b6000600454905090565b600580546105ae9061110b565b80601f01602080910402602001604051908101604052809291908181526020018280546105da9061110b565b80156106275780601f106105fc57610100808354040283529160200191610627565b820191906000526020600020905b81548152906001019060200180831161060a57829003601f168201915b505050505081565b610637610ca8565b73ffffffffffffffffffffffffffffffffffffffff166106556106b7565b73ffffffffffffffffffffffffffffffffffffffff16146106ab576040517f08c379a00000000000000000000000000000000000000000000000000000000081526004016106a290611189565b60405180910390fd5b6106b56000610cb0565b565b60008060009054906101000a900473ffffffffffffffffffffffffffffffffffffffff16905090565b600160028111156106f4576106f36111a9565b5b600b60009054906101000a900460ff166002811115610716576107156111a9565b5b1461072057600080fd5b60006002600a546107319190611207565b90508082101561074057600080fd5b600060045490506004600081548092919061075a90611238565b919050555060405180604001604052803373ffffffffffffffffffffffffffffffffffffffff168152602001848152506003600083815260200190815260200160002060008201518160000160006101000a81548173ffffffffffffffffffffffffffffffffffffffff021916908373ffffffffffffffffffffffffffffffffffffffff160217905550602082015181600101559050507f1998aeef58ff11c1b0cba8a5c3d545e310bc8c53fe0e1219158b69fc798bfebd60405160405180910390a1505050565b600a5481565b610830610ca8565b73ffffffffffffffffffffffffffffffffffffffff1661084e6106b7565b73ffffffffffffffffffffffffffffffffffffffff16146108a4576040517f08c379a000000000000000000000000000000000000000000000000000000000815260040161089b90611189565b60405180910390fd5b80600a819055506001600b60006101000a81548160ff021916908360028111156108d1576108d06111a9565b5b02179055507fb78f9de73ca0069a2bfc6463635707582269ea0b35047249542a65a7116dbee660405160405180910390a150565b61090d610ca8565b73ffffffffffffffffffffffffffffffffffffffff1661092b6106b7565b73ffffffffffffffffffffffffffffffffffffffff1614610981576040517f08c379a000000000000000000000000000000000000000000000000000000000815260040161097890611189565b60405180910390fd5b60016002811115610995576109946111a9565b5b600b60009054906101000a900460ff1660028111156109b7576109b66111a9565b5b146109c157600080fd5b6004546001826109d191906110a8565b106109db57600080fd5b6000600360006001846109ee91906110a8565b815260200190815260200160002060000160009054906101000a900473ffffffffffffffffffffffffffffffffffffffff1690506000610a2c610d74565b9050816001600083815260200190815260200160002060006101000a81548173ffffffffffffffffffffffffffffffffffffffff021916908373ffffffffffffffffffffffffffffffffffffffff160217905550600260008373ffffffffffffffffffffffffffffffffffffffff1673ffffffffffffffffffffffffffffffffffffffff16815260200190815260200160002081908060018154018082558091505060019003906000526020600020016000909190919091505560005b600454811015610b4b5760036000828152602001908152602001600020600080820160006101000a81549073ffffffffffffffffffffffffffffffffffffffff0219169055600182016000905550508080610b4390611238565b915050610ae9565b5060006004819055506002600b60006101000a81548160ff02191690836002811115610b7a57610b796111a9565b5b02179055507f02c7e7afb4ec6b98852b343f3f1bb58ceab154308ee28a0c0d44693f92e7bb4f60405160405180910390a1505050565b610bb8610ca8565b73ffffffffffffffffffffffffffffffffffffffff16610bd66106b7565b73ffffffffffffffffffffffffffffffffffffffff1614610c2c576040517f08c379a0000000000000000000000000000000000000000000000000000000008152600401610c2390611189565b60405180910390fd5b600073ffffffffffffffffffffffffffffffffffffffff168173ffffffffffffffffffffffffffffffffffffffff161415610c9c576040517f08c379a0000000000000000000000000000000000000000000000000000000008152600401610c93906112f3565b60405180910390fd5b610ca581610cb0565b50565b600033905090565b60008060009054906101000a900473ffffffffffffffffffffffffffffffffffffffff169050816000806101000a81548173ffffffffffffffffffffffffffffffffffffffff021916908373ffffffffffffffffffffffffffffffffffffffff1602179055508173ffffffffffffffffffffffffffffffffffffffff168173ffffffffffffffffffffffffffffffffffffffff167f8be0079c531659141344cd1fd0a4f28419497f9722a3daafe3b4186f6b6457e060405160405180910390a35050565b60006005604051602001610d8891906113b2565b6040516020818303038152906040528051906020012060001c905090565b6040518060400160405280600073ffffffffffffffffffffffffffffffffffffffff168152602001600081525090565b600080fd5b6000819050919050565b610dee81610ddb565b8114610df957600080fd5b50565b600081359050610e0b81610de5565b92915050565b600060208284031215610e2757610e26610dd6565b5b6000610e3584828501610dfc565b91505092915050565b600073ffffffffffffffffffffffffffffffffffffffff82169050919050565b6000610e6982610e3e565b9050919050565b610e7981610e5e565b82525050565b610e8881610ddb565b82525050565b604082016000820151610ea46000850182610e70565b506020820151610eb76020850182610e7f565b50505050565b6000604082019050610ed26000830184610e8e565b92915050565b600081519050919050565b600082825260208201905092915050565b60005b83811015610f12578082015181840152602081019050610ef7565b83811115610f21576000848401525b50505050565b6000601f19601f8301169050919050565b6000610f4382610ed8565b610f4d8185610ee3565b9350610f5d818560208601610ef4565b610f6681610f27565b840191505092915050565b60006020820190508181036000830152610f8b8184610f38565b905092915050565b600062ffffff82169050919050565b610fab81610f93565b82525050565b6000602082019050610fc66000830184610fa2565b92915050565b610fd581610ddb565b82525050565b6000602082019050610ff06000830184610fcc565b92915050565b610fff81610e5e565b82525050565b600060208201905061101a6000830184610ff6565b92915050565b61102981610e5e565b811461103457600080fd5b50565b60008135905061104681611020565b92915050565b60006020828403121561106257611061610dd6565b5b600061107084828501611037565b91505092915050565b7f4e487b7100000000000000000000000000000000000000000000000000000000600052601160045260246000fd5b60006110b382610ddb565b91506110be83610ddb565b9250828210156110d1576110d0611079565b5b828203905092915050565b7f4e487b7100000000000000000000000000000000000000000000000000000000600052602260045260246000fd5b6000600282049050600182168061112357607f821691505b60208210811415611137576111366110dc565b5b50919050565b7f4f776e61626c653a2063616c6c6572206973206e6f7420746865206f776e6572600082015250565b6000611173602083610ee3565b915061117e8261113d565b602082019050919050565b600060208201905081810360008301526111a281611166565b9050919050565b7f4e487b7100000000000000000000000000000000000000000000000000000000600052602160045260246000fd5b7f4e487b7100000000000000000000000000000000000000000000000000000000600052601260045260246000fd5b600061121282610ddb565b915061121d83610ddb565b92508261122d5761122c6111d8565b5b828204905092915050565b600061124382610ddb565b91507fffffffffffffffffffffffffffffffffffffffffffffffffffffffffffffffff82141561127657611275611079565b5b600182019050919050565b7f4f776e61626c653a206e6577206f776e657220697320746865207a65726f206160008201527f6464726573730000000000000000000000000000000000000000000000000000602082015250565b60006112dd602683610ee3565b91506112e882611281565b604082019050919050565b6000602082019050818103600083015261130c816112d0565b9050919050565b600081905092915050565b60008190508160005260206000209050919050565b600081546113408161110b565b61134a8186611313565b945060018216600081146113655760018114611376576113a9565b60ff198316865281860193506113a9565b61137f8561131e565b60005b838110156113a157815481890152600182019150602081019050611382565b838801955050505b50505092915050565b60006113be8284611333565b91508190509291505056fea26469706673582212207761734496d139b5437103548e74028af81901836a59efd7ba4817613c6030f064736f6c634300080b0033",
  "immutableReferences": {},
  "source": "// SPDX-License-Identifier: GPL-3.0\r\n\r\npragma solidity ^0.8.0;\r\n\r\n\r\nimport \"@openzeppelin/contracts/access/Ownable.sol\";\r\n\r\n\r\n\r\ncontract CarData is Ownable{\r\n\r\n     struct offer{\r\n        address buyer;\r\n        uint bid;\r\n    }\r\n\r\n    mapping (uint => address) carToOwner;      //a car belongs to a person\r\n    mapping (address => uint[]) ownerToCars;    //one person can have more than one car\r\n\r\n    //mapping (address => uint) offers;\r\n    mapping(uint => offer) offers;\r\n\r\n    uint private offersCounter = 0;\r\n\r\n    string public VIN; //frame number works like a identifier\r\n\r\n    string public brand;\r\n\r\n    string public model;\r\n\r\n    uint24 public kilometraje;\r\n    \r\n    string public ipfsMetaData;\r\n\r\n    uint public price;\r\n\r\n   /*\r\n\r\n    offer[] public offers;\r\n\r\n    */\r\n    \r\n\r\n    // State of the sale\r\n    enum State{\r\n        notListed,     \r\n        onSale,\r\n        Sold\r\n    }\r\n\r\n    State state;\r\n\r\n    modifier notListed() \t{ require(state == State.notListed); \t_;}\r\n    modifier onSale() \t{ require(state == State.onSale); \t_;}\r\n    modifier Sold() \t{ require(state == State.Sold); \t_;}\r\n\r\n    event Sale();\r\n    event bid();\r\n    event sold();\r\n\r\n    constructor(string memory _VIN, string memory _brand, string memory _model, uint24 _kilometraje, string memory _ipfsMetaData) {\r\n        VIN = _VIN;\r\n        brand = _brand;\r\n        model = _model;\r\n        kilometraje = _kilometraje;  //podemos considerar que todos los coches que se vendan estn registrados en blockchain\r\n                                    // por tanto al crear un nuevo coche el kilometraje inicial sera 0\r\n\r\n        ipfsMetaData = _ipfsMetaData;\r\n        \r\n        state = State.notListed;\r\n    }\r\n\r\n\r\n    function List(uint _price) external onlyOwner{\r\n        price = _price;\r\n        state = State.onSale;\r\n        emit Sale();\r\n    }\r\n\r\n    function placeBid(uint _bid) external payable onSale{\r\n        uint minimum = price/2;\r\n        \r\n        require(_bid >= minimum);\r\n\r\n        uint id = offersCounter;       //id starts in 0\r\n        offersCounter++;\r\n\r\n        offers[id] = offer(msg.sender,_bid);\r\n\r\n        emit bid();\r\n    }\r\n    \r\n    function sell(uint i) external onlyOwner onSale{\r\n\r\n            require(i-1<offersCounter);     //usr view : offers starts in 1\r\n\r\n            address buyer = offers[i-1].buyer;\r\n\r\n            uint id = generateCarID();\r\n            carToOwner[id] = buyer;\r\n            ownerToCars[buyer].push(id);\r\n\r\n            for(uint j = 0; j < offersCounter; j++){\r\n                delete offers[j];\r\n            }\r\n            offersCounter = 0;\r\n\r\n            state = State.Sold;\r\n            emit sold();\r\n        \r\n    }\r\n\r\n    function getOffers() external view returns(uint){\r\n        return offersCounter;\r\n    }\r\n\r\n    function showOffer(uint i) external view returns (offer memory){\r\n        \r\n        require(i-1<offersCounter);     //usr view : offers starts in 1\r\n        return offers[i-1];\r\n    }\r\n\r\n    function generateCarID() private view returns (uint256) {\r\n\t\t// NOTE: Hopefully, this way there will not be any cars that have the same ID.\r\n\t\t// VIN will never be the same string for different cars\r\n\t\treturn uint256(keccak256(abi.encodePacked(VIN)));\r\n\t}\r\n\r\n}",
  "sourcePath": "C:\\Users\\ruben\\Documents\\dCars\\contracts\\CarData.sol",
  "compiler": {
    "name": "solc",
    "version": "0.8.11+commit.d7f03943.Emscripten.clang"
  },
  "schemaVersion": "3.4.4",
  "updatedAt": "2022-02-15T18:46:55.620Z",
  "networkType": "ethereum",
  "devdoc": {
    "kind": "dev",
    "methods": {
      "owner()": {
        "details": "Returns the address of the current owner."
      },
      "renounceOwnership()": {
        "details": "Leaves the contract without owner. It will not be possible to call `onlyOwner` functions anymore. Can only be called by the current owner. NOTE: Renouncing ownership will leave the contract without an owner, thereby removing any functionality that is only available to the owner."
      },
      "transferOwnership(address)": {
        "details": "Transfers ownership of the contract to a new account (`newOwner`). Can only be called by the current owner."
      }
    },
    "version": 1
  },
  "userdoc": {
    "kind": "user",
    "methods": {},
    "version": 1
  }
}