{
  "contractName": "CarData",
  "abi": [
    {
      "anonymous": false,
      "inputs": [
        {
          "indexed": false,
          "internalType": "uint256",
          "name": "id",
          "type": "uint256"
        },
        {
          "indexed": false,
          "internalType": "string",
          "name": "brand",
          "type": "string"
        },
        {
          "indexed": false,
          "internalType": "string",
          "name": "model",
          "type": "string"
        }
      ],
      "name": "Created",
      "type": "event"
    },
    {
      "anonymous": false,
      "inputs": [
        {
          "indexed": true,
          "internalType": "address",
          "name": "previousOwner",
          "type": "address"
        },
        {
          "indexed": true,
          "internalType": "address",
          "name": "newOwner",
          "type": "address"
        }
      ],
      "name": "OwnershipTransferred",
      "type": "event"
    },
    {
      "anonymous": false,
      "inputs": [],
      "name": "bid",
      "type": "event"
    },
    {
      "anonymous": false,
      "inputs": [
        {
          "indexed": false,
          "internalType": "uint256",
          "name": "id",
          "type": "uint256"
        },
        {
          "indexed": false,
          "internalType": "uint256",
          "name": "price",
          "type": "uint256"
        }
      ],
      "name": "onSale",
      "type": "event"
    },
    {
      "anonymous": false,
      "inputs": [],
      "name": "sold",
      "type": "event"
    },
    {
      "inputs": [],
      "name": "owner",
      "outputs": [
        {
          "internalType": "address",
          "name": "",
          "type": "address"
        }
      ],
      "stateMutability": "view",
      "type": "function"
    },
    {
      "inputs": [],
      "name": "renounceOwnership",
      "outputs": [],
      "stateMutability": "nonpayable",
      "type": "function"
    },
    {
      "inputs": [
        {
          "internalType": "address",
          "name": "newOwner",
          "type": "address"
        }
      ],
      "name": "transferOwnership",
      "outputs": [],
      "stateMutability": "nonpayable",
      "type": "function"
    },
    {
      "inputs": [
        {
          "internalType": "string",
          "name": "_VIN",
          "type": "string"
        },
        {
          "internalType": "string",
          "name": "_brand",
          "type": "string"
        },
        {
          "internalType": "string",
          "name": "_model",
          "type": "string"
        },
        {
          "internalType": "uint24",
          "name": "_kilometraje",
          "type": "uint24"
        },
        {
          "internalType": "string",
          "name": "_ipfsMetaData",
          "type": "string"
        }
      ],
      "name": "createNewCar",
      "outputs": [],
      "stateMutability": "nonpayable",
      "type": "function"
    },
    {
      "inputs": [
        {
          "internalType": "string",
          "name": "_VIN",
          "type": "string"
        },
        {
          "internalType": "string",
          "name": "_brand",
          "type": "string"
        },
        {
          "internalType": "string",
          "name": "_model",
          "type": "string"
        },
        {
          "internalType": "uint24",
          "name": "_kilometraje",
          "type": "uint24"
        },
        {
          "internalType": "string",
          "name": "_ipfsMetaData",
          "type": "string"
        },
        {
          "internalType": "uint256",
          "name": "_price",
          "type": "uint256"
        }
      ],
      "name": "createNewCar",
      "outputs": [],
      "stateMutability": "nonpayable",
      "type": "function"
    },
    {
      "inputs": [
        {
          "internalType": "uint256",
          "name": "id",
          "type": "uint256"
        },
        {
          "internalType": "uint256",
          "name": "_price",
          "type": "uint256"
        }
      ],
      "name": "List",
      "outputs": [],
      "stateMutability": "nonpayable",
      "type": "function"
    },
    {
      "inputs": [
        {
          "internalType": "uint256",
          "name": "id",
          "type": "uint256"
        },
        {
          "internalType": "uint256",
          "name": "_bid",
          "type": "uint256"
        }
      ],
      "name": "placeBid",
      "outputs": [],
      "stateMutability": "payable",
      "type": "function"
    },
    {
      "inputs": [
        {
          "internalType": "uint256",
          "name": "id",
          "type": "uint256"
        },
        {
          "internalType": "uint256",
          "name": "i",
          "type": "uint256"
        }
      ],
      "name": "showOffer",
      "outputs": [
        {
          "components": [
            {
              "internalType": "address",
              "name": "buyer",
              "type": "address"
            },
            {
              "internalType": "uint256",
              "name": "bid",
              "type": "uint256"
            }
          ],
          "internalType": "struct CarData.offer",
          "name": "",
          "type": "tuple"
        }
      ],
      "stateMutability": "view",
      "type": "function"
    }
  ],
  "bytecode": "0x6080604052600060045534801561001557600080fd5b5061003261002761003760201b60201c565b61003f60201b60201c565b610103565b600033905090565b60008060009054906101000a900473ffffffffffffffffffffffffffffffffffffffff169050816000806101000a81548173ffffffffffffffffffffffffffffffffffffffff021916908373ffffffffffffffffffffffffffffffffffffffff1602179055508173ffffffffffffffffffffffffffffffffffffffff168173ffffffffffffffffffffffffffffffffffffffff167f8be0079c531659141344cd1fd0a4f28419497f9722a3daafe3b4186f6b6457e060405160405180910390a35050565b6115c3806101126000396000f3fe60806040526004361061007b5760003560e01c80638da5cb5b1161004e5780638da5cb5b14610119578063920ec3cb14610144578063c38e78321461016d578063f2fde38b146101965761007b565b806357c90de514610080578063715018a61461009c57806377b5cc0b146100b35780638770b0b7146100dc575b600080fd5b61009a60048036038101906100959190610d42565b6101bf565b005b3480156100a857600080fd5b506100b161032d565b005b3480156100bf57600080fd5b506100da60048036038101906100d59190610f03565b6103b5565b005b3480156100e857600080fd5b5061010360048036038101906100fe9190610d42565b6105c9565b604051610110919061106d565b60405180910390f35b34801561012557600080fd5b5061012e6106dc565b60405161013b9190611097565b60405180910390f35b34801561015057600080fd5b5061016b600480360381019061016691906110b2565b610705565b005b34801561017957600080fd5b50610194600480360381019061018f9190610d42565b610953565b005b3480156101a257600080fd5b506101bd60048036038101906101b891906111db565b610a61565b005b600060018111156101d3576101d2611208565b5b600660009054906101000a900460ff1660018111156101f5576101f4611208565b5b146101ff57600080fd5b600060026005848154811061021757610216611237565b5b90600052602060002090600602016005015461023391906112c4565b90508082101561024257600080fd5b6003600084815260200190815260200160002060405180604001604052803373ffffffffffffffffffffffffffffffffffffffff16815260200184815250908060018154018082558091505060019003906000526020600020906002020160009091909190915060008201518160000160006101000a81548173ffffffffffffffffffffffffffffffffffffffff021916908373ffffffffffffffffffffffffffffffffffffffff1602179055506020820151816001015550507f1998aeef58ff11c1b0cba8a5c3d545e310bc8c53fe0e1219158b69fc798bfebd60405160405180910390a1505050565b610335610b59565b73ffffffffffffffffffffffffffffffffffffffff166103536106dc565b73ffffffffffffffffffffffffffffffffffffffff16146103a9576040517f08c379a00000000000000000000000000000000000000000000000000000000081526004016103a090611352565b60405180910390fd5b6103b36000610b61565b565b60056040518060c001604052808781526020018681526020018581526020018462ffffff16815260200183815260200160008152509080600181540180825580915050600190039060005260206000209060060201600090919091909150600082015181600001908051906020019061042f929190610c25565b50602082015181600101908051906020019061044c929190610c25565b506040820151816002019080519060200190610469929190610c25565b5060608201518160030160006101000a81548162ffffff021916908362ffffff16021790555060808201518160040190805190602001906104ab929190610c25565b5060a082015181600501555050600060016005805490506104cc9190611372565b9050336001600083815260200190815260200160002060006101000a81548173ffffffffffffffffffffffffffffffffffffffff021916908373ffffffffffffffffffffffffffffffffffffffff160217905550600260003373ffffffffffffffffffffffffffffffffffffffff1673ffffffffffffffffffffffffffffffffffffffff1681526020019081526020016000208190806001815401808255809150506001900390600052602060002001600090919091909150557f6fc9fd297ab2cdd4c0c578f4853d2368a74696b4aa923f1a7760b219b3d3ad068186866040516105b99392919061142c565b60405180910390a1505050505050565b6105d1610cab565b6004546001836105e19190611372565b106105eb57600080fd5b600060036000858152602001908152602001600020805480602002602001604051908101604052809291908181526020016000905b828210156106b257838290600052602060002090600202016040518060400160405290816000820160009054906101000a900473ffffffffffffffffffffffffffffffffffffffff1673ffffffffffffffffffffffffffffffffffffffff1673ffffffffffffffffffffffffffffffffffffffff16815260200160018201548152505081526020019060010190610620565b5050505090508083815181106106cb576106ca611237565b5b602002602001015191505092915050565b60008060009054906101000a900473ffffffffffffffffffffffffffffffffffffffff16905090565b60056040518060c001604052808881526020018781526020018681526020018562ffffff16815260200184815260200160008152509080600181540180825580915050600190039060005260206000209060060201600090919091909150600082015181600001908051906020019061077f929190610c25565b50602082015181600101908051906020019061079c929190610c25565b5060408201518160020190805190602001906107b9929190610c25565b5060608201518160030160006101000a81548162ffffff021916908362ffffff16021790555060808201518160040190805190602001906107fb929190610c25565b5060a0820151816005015550506000600160058054905061081c9190611372565b9050336001600083815260200190815260200160002060006101000a81548173ffffffffffffffffffffffffffffffffffffffff021916908373ffffffffffffffffffffffffffffffffffffffff160217905550600260003373ffffffffffffffffffffffffffffffffffffffff1673ffffffffffffffffffffffffffffffffffffffff1681526020019081526020016000208190806001815401808255809150506001900390600052602060002001600090919091909150557f6fc9fd297ab2cdd4c0c578f4853d2368a74696b4aa923f1a7760b219b3d3ad068187876040516109099392919061142c565b60405180910390a17f6c6a648185e78bce86957b13c7ce58dc2d2e825b2c2c452ad941e89b0eeb0aa88183604051610942929190611471565b60405180910390a150505050505050565b61095b610b59565b73ffffffffffffffffffffffffffffffffffffffff166109796106dc565b73ffffffffffffffffffffffffffffffffffffffff16146109cf576040517f08c379a00000000000000000000000000000000000000000000000000000000081526004016109c690611352565b60405180910390fd5b80600583815481106109e4576109e3611237565b5b9060005260206000209060060201600501819055506000600660006101000a81548160ff02191690836001811115610a1f57610a1e611208565b5b02179055507f6c6a648185e78bce86957b13c7ce58dc2d2e825b2c2c452ad941e89b0eeb0aa88282604051610a55929190611471565b60405180910390a15050565b610a69610b59565b73ffffffffffffffffffffffffffffffffffffffff16610a876106dc565b73ffffffffffffffffffffffffffffffffffffffff1614610add576040517f08c379a0000000000000000000000000000000000000000000000000000000008152600401610ad490611352565b60405180910390fd5b600073ffffffffffffffffffffffffffffffffffffffff168173ffffffffffffffffffffffffffffffffffffffff161415610b4d576040517f08c379a0000000000000000000000000000000000000000000000000000000008152600401610b449061150c565b60405180910390fd5b610b5681610b61565b50565b600033905090565b60008060009054906101000a900473ffffffffffffffffffffffffffffffffffffffff169050816000806101000a81548173ffffffffffffffffffffffffffffffffffffffff021916908373ffffffffffffffffffffffffffffffffffffffff1602179055508173ffffffffffffffffffffffffffffffffffffffff168173ffffffffffffffffffffffffffffffffffffffff167f8be0079c531659141344cd1fd0a4f28419497f9722a3daafe3b4186f6b6457e060405160405180910390a35050565b828054610c319061155b565b90600052602060002090601f016020900481019282610c535760008555610c9a565b82601f10610c6c57805160ff1916838001178555610c9a565b82800160010185558215610c9a579182015b82811115610c99578251825591602001919060010190610c7e565b5b509050610ca79190610cdb565b5090565b6040518060400160405280600073ffffffffffffffffffffffffffffffffffffffff168152602001600081525090565b5b80821115610cf4576000816000905550600101610cdc565b5090565b6000604051905090565b600080fd5b600080fd5b6000819050919050565b610d1f81610d0c565b8114610d2a57600080fd5b50565b600081359050610d3c81610d16565b92915050565b60008060408385031215610d5957610d58610d02565b5b6000610d6785828601610d2d565b9250506020610d7885828601610d2d565b9150509250929050565b600080fd5b600080fd5b6000601f19601f8301169050919050565b7f4e487b7100000000000000000000000000000000000000000000000000000000600052604160045260246000fd5b610dd582610d8c565b810181811067ffffffffffffffff82111715610df457610df3610d9d565b5b80604052505050565b6000610e07610cf8565b9050610e138282610dcc565b919050565b600067ffffffffffffffff821115610e3357610e32610d9d565b5b610e3c82610d8c565b9050602081019050919050565b82818337600083830152505050565b6000610e6b610e6684610e18565b610dfd565b905082815260208101848484011115610e8757610e86610d87565b5b610e92848285610e49565b509392505050565b600082601f830112610eaf57610eae610d82565b5b8135610ebf848260208601610e58565b91505092915050565b600062ffffff82169050919050565b610ee081610ec8565b8114610eeb57600080fd5b50565b600081359050610efd81610ed7565b92915050565b600080600080600060a08688031215610f1f57610f1e610d02565b5b600086013567ffffffffffffffff811115610f3d57610f3c610d07565b5b610f4988828901610e9a565b955050602086013567ffffffffffffffff811115610f6a57610f69610d07565b5b610f7688828901610e9a565b945050604086013567ffffffffffffffff811115610f9757610f96610d07565b5b610fa388828901610e9a565b9350506060610fb488828901610eee565b925050608086013567ffffffffffffffff811115610fd557610fd4610d07565b5b610fe188828901610e9a565b9150509295509295909350565b600073ffffffffffffffffffffffffffffffffffffffff82169050919050565b600061101982610fee565b9050919050565b6110298161100e565b82525050565b61103881610d0c565b82525050565b6040820160008201516110546000850182611020565b506020820151611067602085018261102f565b50505050565b6000604082019050611082600083018461103e565b92915050565b6110918161100e565b82525050565b60006020820190506110ac6000830184611088565b92915050565b60008060008060008060c087890312156110cf576110ce610d02565b5b600087013567ffffffffffffffff8111156110ed576110ec610d07565b5b6110f989828a01610e9a565b965050602087013567ffffffffffffffff81111561111a57611119610d07565b5b61112689828a01610e9a565b955050604087013567ffffffffffffffff81111561114757611146610d07565b5b61115389828a01610e9a565b945050606061116489828a01610eee565b935050608087013567ffffffffffffffff81111561118557611184610d07565b5b61119189828a01610e9a565b92505060a06111a289828a01610d2d565b9150509295509295509295565b6111b88161100e565b81146111c357600080fd5b50565b6000813590506111d5816111af565b92915050565b6000602082840312156111f1576111f0610d02565b5b60006111ff848285016111c6565b91505092915050565b7f4e487b7100000000000000000000000000000000000000000000000000000000600052602160045260246000fd5b7f4e487b7100000000000000000000000000000000000000000000000000000000600052603260045260246000fd5b7f4e487b7100000000000000000000000000000000000000000000000000000000600052601260045260246000fd5b7f4e487b7100000000000000000000000000000000000000000000000000000000600052601160045260246000fd5b60006112cf82610d0c565b91506112da83610d0c565b9250826112ea576112e9611266565b5b828204905092915050565b600082825260208201905092915050565b7f4f776e61626c653a2063616c6c6572206973206e6f7420746865206f776e6572600082015250565b600061133c6020836112f5565b915061134782611306565b602082019050919050565b6000602082019050818103600083015261136b8161132f565b9050919050565b600061137d82610d0c565b915061138883610d0c565b92508282101561139b5761139a611295565b5b828203905092915050565b6113af81610d0c565b82525050565b600081519050919050565b60005b838110156113de5780820151818401526020810190506113c3565b838111156113ed576000848401525b50505050565b60006113fe826113b5565b61140881856112f5565b93506114188185602086016113c0565b61142181610d8c565b840191505092915050565b600060608201905061144160008301866113a6565b818103602083015261145381856113f3565b9050818103604083015261146781846113f3565b9050949350505050565b600060408201905061148660008301856113a6565b61149360208301846113a6565b9392505050565b7f4f776e61626c653a206e6577206f776e657220697320746865207a65726f206160008201527f6464726573730000000000000000000000000000000000000000000000000000602082015250565b60006114f66026836112f5565b91506115018261149a565b604082019050919050565b60006020820190508181036000830152611525816114e9565b9050919050565b7f4e487b7100000000000000000000000000000000000000000000000000000000600052602260045260246000fd5b6000600282049050600182168061157357607f821691505b602082108114156115875761158661152c565b5b5091905056fea2646970667358221220f3075299fbd2f85554c135a58d84d2d02fb30f52327632859aa5557099f5d46364736f6c634300080b0033",
  "immutableReferences": {},
  "source": "// SPDX-License-Identifier: GPL-3.0\r\n\r\npragma solidity ^0.8.0;\r\n\r\n\r\nimport \"@openzeppelin/contracts/access/Ownable.sol\";\r\n\r\n\r\n//contrato que representa la lgica de los coches que se van a vender\r\n\r\ncontract CarData is Ownable{\r\n\r\n    mapping (uint => address) carToOwner;      //a car belongs to a person\r\n    mapping (address => uint[]) ownerToCars;    //one person can have more than one car\r\n\r\n    //mapping (address => uint) offers;\r\n    mapping(uint => offer[]) offers;\r\n\r\n    struct offer{\r\n        address buyer;\r\n        uint bid;\r\n    }\r\n\r\n    uint private offersCounter = 0;\r\n\r\n    struct Car{\r\n    string VIN; //frame number works like a identifier\r\n    string brand;\r\n    string model;\r\n    uint24 kilometraje;\r\n    string ipfsMetaData;\r\n    uint price;\r\n    }\r\n\r\n    Car[] cars;\r\n    \r\n\r\n    // State of the sale\r\n    enum State{     \r\n        onSale,\r\n        Sold\r\n    }\r\n\r\n    State state;\r\n\r\n    modifier Sale() \t{ require(state == State.onSale); \t_;}\r\n    modifier Sold() \t{ require(state == State.Sold); \t_;}\r\n\r\n    event Created(uint id, string brand, string model);\r\n    event onSale(uint id, uint price);\r\n    event bid();\r\n    event sold();\r\n\r\n    //created but not onSale\r\n    function createNewCar(string memory _VIN, string memory _brand, string memory _model, uint24 _kilometraje, string memory _ipfsMetaData) external {\r\n        cars.push(Car(_VIN,_brand,_model,_kilometraje,_ipfsMetaData,0));\r\n\r\n        uint id = cars.length-1;\r\n        carToOwner[id] = msg.sender;\r\n        ownerToCars[msg.sender].push(id);\r\n\r\n        emit Created(id, _brand, _model);\r\n    }\r\n\r\n    //created and onSale\r\n    function createNewCar(string memory _VIN, string memory _brand, string memory _model, uint24 _kilometraje, string memory _ipfsMetaData,uint _price) external {\r\n        cars.push(Car(_VIN,_brand,_model,_kilometraje,_ipfsMetaData,0));\r\n\r\n        uint id = cars.length-1;\r\n        carToOwner[id] = msg.sender;\r\n        ownerToCars[msg.sender].push(id);\r\n\r\n        emit Created(id, _brand, _model);\r\n        emit onSale(id, _price);\r\n    }\r\n    \r\n\r\n      function List(uint id, uint _price) external onlyOwner{\r\n        cars[id].price = _price;\r\n        state = State.onSale;\r\n        emit onSale(id,_price);\r\n    }\r\n\r\n    function placeBid(uint id,uint _bid) external payable Sale{\r\n        uint minimum = cars[id].price/2;\r\n        \r\n        require(_bid >= minimum);\r\n\r\n        offers[id].push(offer(msg.sender,_bid));\r\n\r\n        emit bid();\r\n    }\r\n\r\n    function showOffer(uint id,uint i) external view returns (offer memory){\r\n        \r\n        require(i-1<offersCounter);     //usr view : offers starts in 1\r\n        offer[] memory aux = offers[id];\r\n        return aux[i];\r\n    }\r\n\r\n    function generateCarID(string memory _VIN) private view returns (uint256) {\r\n\t\t// NOTE: Hopefully, this way there will not be any cars that have the same ID.\r\n\t\t// VIN will never be the same string for different cars\r\n\t\treturn uint256(keccak256(abi.encodePacked(_VIN)));\r\n\t}\r\n\r\n}",
  "sourcePath": "C:\\Users\\ruben\\Documents\\dCars\\contracts\\CarData.sol",
  "compiler": {
    "name": "solc",
    "version": "0.8.11+commit.d7f03943.Emscripten.clang"
  },
  "schemaVersion": "3.4.4",
  "updatedAt": "2022-02-22T09:38:57.582Z",
  "devdoc": {
    "kind": "dev",
    "methods": {
      "owner()": {
        "details": "Returns the address of the current owner."
      },
      "renounceOwnership()": {
        "details": "Leaves the contract without owner. It will not be possible to call `onlyOwner` functions anymore. Can only be called by the current owner. NOTE: Renouncing ownership will leave the contract without an owner, thereby removing any functionality that is only available to the owner."
      },
      "transferOwnership(address)": {
        "details": "Transfers ownership of the contract to a new account (`newOwner`). Can only be called by the current owner."
      }
    },
    "version": 1
  },
  "userdoc": {
    "kind": "user",
    "methods": {},
    "version": 1
  }
}