{
  "contractName": "CarOwnership",
  "abi": [
    {
      "inputs": [
        {
          "internalType": "string",
          "name": "_VIN",
          "type": "string"
        },
        {
          "internalType": "string",
          "name": "_brand",
          "type": "string"
        },
        {
          "internalType": "string",
          "name": "_model",
          "type": "string"
        },
        {
          "internalType": "uint24",
          "name": "_kilometraje",
          "type": "uint24"
        },
        {
          "internalType": "string",
          "name": "_ipfsMetaData",
          "type": "string"
        }
      ],
      "stateMutability": "nonpayable",
      "type": "constructor"
    },
    {
      "anonymous": false,
      "inputs": [
        {
          "indexed": true,
          "internalType": "address",
          "name": "owner",
          "type": "address"
        },
        {
          "indexed": true,
          "internalType": "address",
          "name": "approved",
          "type": "address"
        },
        {
          "indexed": true,
          "internalType": "uint256",
          "name": "tokenId",
          "type": "uint256"
        }
      ],
      "name": "Approval",
      "type": "event"
    },
    {
      "anonymous": false,
      "inputs": [
        {
          "indexed": true,
          "internalType": "address",
          "name": "owner",
          "type": "address"
        },
        {
          "indexed": true,
          "internalType": "address",
          "name": "operator",
          "type": "address"
        },
        {
          "indexed": false,
          "internalType": "bool",
          "name": "approved",
          "type": "bool"
        }
      ],
      "name": "ApprovalForAll",
      "type": "event"
    },
    {
      "anonymous": false,
      "inputs": [
        {
          "indexed": true,
          "internalType": "address",
          "name": "previousOwner",
          "type": "address"
        },
        {
          "indexed": true,
          "internalType": "address",
          "name": "newOwner",
          "type": "address"
        }
      ],
      "name": "OwnershipTransferred",
      "type": "event"
    },
    {
      "anonymous": false,
      "inputs": [],
      "name": "Sale",
      "type": "event"
    },
    {
      "anonymous": false,
      "inputs": [
        {
          "indexed": true,
          "internalType": "address",
          "name": "from",
          "type": "address"
        },
        {
          "indexed": true,
          "internalType": "address",
          "name": "to",
          "type": "address"
        },
        {
          "indexed": true,
          "internalType": "uint256",
          "name": "tokenId",
          "type": "uint256"
        }
      ],
      "name": "Transfer",
      "type": "event"
    },
    {
      "anonymous": false,
      "inputs": [],
      "name": "bid",
      "type": "event"
    },
    {
      "anonymous": false,
      "inputs": [],
      "name": "sold",
      "type": "event"
    },
    {
      "inputs": [
        {
          "internalType": "uint256",
          "name": "_price",
          "type": "uint256"
        }
      ],
      "name": "List",
      "outputs": [],
      "stateMutability": "nonpayable",
      "type": "function"
    },
    {
      "inputs": [],
      "name": "VIN",
      "outputs": [
        {
          "internalType": "string",
          "name": "",
          "type": "string"
        }
      ],
      "stateMutability": "view",
      "type": "function"
    },
    {
      "inputs": [],
      "name": "brand",
      "outputs": [
        {
          "internalType": "string",
          "name": "",
          "type": "string"
        }
      ],
      "stateMutability": "view",
      "type": "function"
    },
    {
      "inputs": [],
      "name": "getOffers",
      "outputs": [
        {
          "internalType": "uint256",
          "name": "",
          "type": "uint256"
        }
      ],
      "stateMutability": "view",
      "type": "function"
    },
    {
      "inputs": [],
      "name": "ipfsMetaData",
      "outputs": [
        {
          "internalType": "string",
          "name": "",
          "type": "string"
        }
      ],
      "stateMutability": "view",
      "type": "function"
    },
    {
      "inputs": [],
      "name": "kilometraje",
      "outputs": [
        {
          "internalType": "uint24",
          "name": "",
          "type": "uint24"
        }
      ],
      "stateMutability": "view",
      "type": "function"
    },
    {
      "inputs": [],
      "name": "model",
      "outputs": [
        {
          "internalType": "string",
          "name": "",
          "type": "string"
        }
      ],
      "stateMutability": "view",
      "type": "function"
    },
    {
      "inputs": [],
      "name": "owner",
      "outputs": [
        {
          "internalType": "address",
          "name": "",
          "type": "address"
        }
      ],
      "stateMutability": "view",
      "type": "function"
    },
    {
      "inputs": [
        {
          "internalType": "uint256",
          "name": "_bid",
          "type": "uint256"
        }
      ],
      "name": "placeBid",
      "outputs": [],
      "stateMutability": "payable",
      "type": "function"
    },
    {
      "inputs": [],
      "name": "price",
      "outputs": [
        {
          "internalType": "uint256",
          "name": "",
          "type": "uint256"
        }
      ],
      "stateMutability": "view",
      "type": "function"
    },
    {
      "inputs": [],
      "name": "renounceOwnership",
      "outputs": [],
      "stateMutability": "nonpayable",
      "type": "function"
    },
    {
      "inputs": [
        {
          "internalType": "uint256",
          "name": "i",
          "type": "uint256"
        }
      ],
      "name": "sell",
      "outputs": [],
      "stateMutability": "nonpayable",
      "type": "function"
    },
    {
      "inputs": [
        {
          "internalType": "uint256",
          "name": "i",
          "type": "uint256"
        }
      ],
      "name": "showOffer",
      "outputs": [
        {
          "components": [
            {
              "internalType": "address",
              "name": "buyer",
              "type": "address"
            },
            {
              "internalType": "uint256",
              "name": "bid",
              "type": "uint256"
            }
          ],
          "internalType": "struct CarData.offer",
          "name": "",
          "type": "tuple"
        }
      ],
      "stateMutability": "view",
      "type": "function"
    },
    {
      "inputs": [
        {
          "internalType": "address",
          "name": "newOwner",
          "type": "address"
        }
      ],
      "name": "transferOwnership",
      "outputs": [],
      "stateMutability": "nonpayable",
      "type": "function"
    },
    {
      "inputs": [
        {
          "internalType": "bytes4",
          "name": "interfaceID",
          "type": "bytes4"
        }
      ],
      "name": "supportsInterface",
      "outputs": [
        {
          "internalType": "bool",
          "name": "",
          "type": "bool"
        }
      ],
      "stateMutability": "view",
      "type": "function"
    },
    {
      "inputs": [
        {
          "internalType": "address",
          "name": "owner",
          "type": "address"
        }
      ],
      "name": "balanceOf",
      "outputs": [
        {
          "internalType": "uint256",
          "name": "balance",
          "type": "uint256"
        }
      ],
      "stateMutability": "view",
      "type": "function"
    },
    {
      "inputs": [
        {
          "internalType": "uint256",
          "name": "tokenId",
          "type": "uint256"
        }
      ],
      "name": "ownerOf",
      "outputs": [
        {
          "internalType": "address",
          "name": "owner",
          "type": "address"
        }
      ],
      "stateMutability": "view",
      "type": "function"
    },
    {
      "inputs": [
        {
          "internalType": "address",
          "name": "from",
          "type": "address"
        },
        {
          "internalType": "address",
          "name": "to",
          "type": "address"
        },
        {
          "internalType": "uint256",
          "name": "tokenId",
          "type": "uint256"
        }
      ],
      "name": "transferFrom",
      "outputs": [],
      "stateMutability": "nonpayable",
      "type": "function"
    },
    {
      "inputs": [
        {
          "internalType": "address",
          "name": "to",
          "type": "address"
        },
        {
          "internalType": "uint256",
          "name": "tokenId",
          "type": "uint256"
        }
      ],
      "name": "approve",
      "outputs": [],
      "stateMutability": "nonpayable",
      "type": "function"
    },
    {
      "inputs": [
        {
          "internalType": "uint256",
          "name": "tokenId",
          "type": "uint256"
        }
      ],
      "name": "getApproved",
      "outputs": [
        {
          "internalType": "address",
          "name": "operator",
          "type": "address"
        }
      ],
      "stateMutability": "view",
      "type": "function"
    },
    {
      "inputs": [
        {
          "internalType": "address",
          "name": "operator",
          "type": "address"
        },
        {
          "internalType": "bool",
          "name": "_approved",
          "type": "bool"
        }
      ],
      "name": "setApprovalForAll",
      "outputs": [],
      "stateMutability": "nonpayable",
      "type": "function"
    },
    {
      "inputs": [
        {
          "internalType": "address",
          "name": "owner",
          "type": "address"
        },
        {
          "internalType": "address",
          "name": "operator",
          "type": "address"
        }
      ],
      "name": "isApprovedForAll",
      "outputs": [
        {
          "internalType": "bool",
          "name": "",
          "type": "bool"
        }
      ],
      "stateMutability": "view",
      "type": "function"
    },
    {
      "inputs": [
        {
          "internalType": "address",
          "name": "from",
          "type": "address"
        },
        {
          "internalType": "address",
          "name": "to",
          "type": "address"
        },
        {
          "internalType": "uint256",
          "name": "tokenId",
          "type": "uint256"
        }
      ],
      "name": "safeTransferFrom",
      "outputs": [],
      "stateMutability": "nonpayable",
      "type": "function"
    },
    {
      "inputs": [
        {
          "internalType": "address",
          "name": "from",
          "type": "address"
        },
        {
          "internalType": "address",
          "name": "to",
          "type": "address"
        },
        {
          "internalType": "uint256",
          "name": "tokenId",
          "type": "uint256"
        },
        {
          "internalType": "bytes",
          "name": "data",
          "type": "bytes"
        }
      ],
      "name": "safeTransferFrom",
      "outputs": [],
      "stateMutability": "nonpayable",
      "type": "function"
    }
  ],
  "bytecode": "0x608060405260006004553480156200001657600080fd5b50604051620021903803806200219083398181016040528101906200003c9190620004cd565b848484848462000061620000556200017460201b60201c565b6200017c60201b60201c565b84600590805190602001906200007992919062000240565b5083600690805190602001906200009292919062000240565b508260079080519060200190620000ab92919062000240565b5081600860006101000a81548162ffffff021916908362ffffff1602179055508060099080519060200190620000e392919062000240565b506000600b60006101000a81548160ff021916908360028111156200010d576200010c620005d1565b5b021790555050505050506001600c60006380ac58cd60e01b7bffffffffffffffffffffffffffffffffffffffffffffffffffffffff1916815260200190815260200160002060006101000a81548160ff021916908315150217905550505050505062000665565b600033905090565b60008060009054906101000a900473ffffffffffffffffffffffffffffffffffffffff169050816000806101000a81548173ffffffffffffffffffffffffffffffffffffffff021916908373ffffffffffffffffffffffffffffffffffffffff1602179055508173ffffffffffffffffffffffffffffffffffffffff168173ffffffffffffffffffffffffffffffffffffffff167f8be0079c531659141344cd1fd0a4f28419497f9722a3daafe3b4186f6b6457e060405160405180910390a35050565b8280546200024e906200062f565b90600052602060002090601f016020900481019282620002725760008555620002be565b82601f106200028d57805160ff1916838001178555620002be565b82800160010185558215620002be579182015b82811115620002bd578251825591602001919060010190620002a0565b5b509050620002cd9190620002d1565b5090565b5b80821115620002ec576000816000905550600101620002d2565b5090565b6000604051905090565b600080fd5b600080fd5b600080fd5b600080fd5b6000601f19601f8301169050919050565b7f4e487b7100000000000000000000000000000000000000000000000000000000600052604160045260246000fd5b62000359826200030e565b810181811067ffffffffffffffff821117156200037b576200037a6200031f565b5b80604052505050565b600062000390620002f0565b90506200039e82826200034e565b919050565b600067ffffffffffffffff821115620003c157620003c06200031f565b5b620003cc826200030e565b9050602081019050919050565b60005b83811015620003f9578082015181840152602081019050620003dc565b8381111562000409576000848401525b50505050565b6000620004266200042084620003a3565b62000384565b90508281526020810184848401111562000445576200044462000309565b5b62000452848285620003d9565b509392505050565b600082601f83011262000472576200047162000304565b5b8151620004848482602086016200040f565b91505092915050565b600062ffffff82169050919050565b620004a7816200048d565b8114620004b357600080fd5b50565b600081519050620004c7816200049c565b92915050565b600080600080600060a08688031215620004ec57620004eb620002fa565b5b600086015167ffffffffffffffff8111156200050d576200050c620002ff565b5b6200051b888289016200045a565b955050602086015167ffffffffffffffff8111156200053f576200053e620002ff565b5b6200054d888289016200045a565b945050604086015167ffffffffffffffff811115620005715762000570620002ff565b5b6200057f888289016200045a565b93505060606200059288828901620004b6565b925050608086015167ffffffffffffffff811115620005b657620005b5620002ff565b5b620005c4888289016200045a565b9150509295509295909350565b7f4e487b7100000000000000000000000000000000000000000000000000000000600052602160045260246000fd5b7f4e487b7100000000000000000000000000000000000000000000000000000000600052602260045260246000fd5b600060028204905060018216806200064857607f821691505b602082108114156200065f576200065e62000600565b5b50919050565b611b1b80620006756000396000f3fe60806040526004361061014b5760003560e01c80636352211e116100b6578063a22cb4651161006f578063a22cb46514610487578063b88d4fde146104b0578063dd11eaf2146104d9578063e4849b3214610502578063e985e9c51461052b578063f2fde38b146105685761014b565b80636352211e1461038457806370a08231146103c1578063715018a6146103fe5780638da5cb5b146104155780639979ef4514610440578063a035b1fe1461045c5761014b565b806323b872dd1161010857806323b872dd146102865780632d9fff01146102af5780633275e477146102da5780633ee992ee1461030557806342842e0e1461033057806342ed5a8e146103595761014b565b8063017716dc1461015057806301ffc9a71461018d578063081812fc146101ca578063095ea7b3146102075780630ad9d052146102305780630e56ad061461025b575b600080fd5b34801561015c57600080fd5b5061017760048036038101906101729190611246565b610591565b60405161018491906112f2565b60405180910390f35b34801561019957600080fd5b506101b460048036038101906101af9190611365565b610644565b6040516101c191906113ad565b60405180910390f35b3480156101d657600080fd5b506101f160048036038101906101ec9190611246565b6106ac565b6040516101fe91906113d7565b60405180910390f35b34801561021357600080fd5b5061022e6004803603810190610229919061141e565b6106b3565b005b34801561023c57600080fd5b506102456106b7565b60405161025291906114f7565b60405180910390f35b34801561026757600080fd5b50610270610745565b60405161027d9190611537565b60405180910390f35b34801561029257600080fd5b506102ad60048036038101906102a89190611552565b61075a565b005b3480156102bb57600080fd5b506102c461075f565b6040516102d191906114f7565b60405180910390f35b3480156102e657600080fd5b506102ef6107ed565b6040516102fc91906114f7565b60405180910390f35b34801561031157600080fd5b5061031a61087b565b60405161032791906115b4565b60405180910390f35b34801561033c57600080fd5b5061035760048036038101906103529190611552565b610885565b005b34801561036557600080fd5b5061036e61088a565b60405161037b91906114f7565b60405180910390f35b34801561039057600080fd5b506103ab60048036038101906103a69190611246565b610918565b6040516103b891906113d7565b60405180910390f35b3480156103cd57600080fd5b506103e860048036038101906103e391906115cf565b6109c7565b6040516103f591906115b4565b60405180910390f35b34801561040a57600080fd5b50610413610a4c565b005b34801561042157600080fd5b5061042a610ad4565b60405161043791906113d7565b60405180910390f35b61045a60048036038101906104559190611246565b610afd565b005b34801561046857600080fd5b50610471610c3f565b60405161047e91906115b4565b60405180910390f35b34801561049357600080fd5b506104ae60048036038101906104a99190611628565b610c45565b005b3480156104bc57600080fd5b506104d760048036038101906104d291906116cd565b610c49565b005b3480156104e557600080fd5b5061050060048036038101906104fb9190611246565b610c50565b005b34801561050e57600080fd5b5061052960048036038101906105249190611246565b610d2d565b005b34801561053757600080fd5b50610552600480360381019061054d9190611755565b610fd8565b60405161055f91906113ad565b60405180910390f35b34801561057457600080fd5b5061058f600480360381019061058a91906115cf565b610fe0565b005b6105996111d6565b6004546001836105a991906117c4565b106105b357600080fd5b600360006001846105c491906117c4565b81526020019081526020016000206040518060400160405290816000820160009054906101000a900473ffffffffffffffffffffffffffffffffffffffff1673ffffffffffffffffffffffffffffffffffffffff1673ffffffffffffffffffffffffffffffffffffffff1681526020016001820154815250509050919050565b6000600c6000837bffffffffffffffffffffffffffffffffffffffffffffffffffffffff19167bffffffffffffffffffffffffffffffffffffffffffffffffffffffff1916815260200190815260200160002060009054906101000a900460ff169050919050565b6000919050565b5050565b600780546106c490611827565b80601f01602080910402602001604051908101604052809291908181526020018280546106f090611827565b801561073d5780601f106107125761010080835404028352916020019161073d565b820191906000526020600020905b81548152906001019060200180831161072057829003601f168201915b505050505081565b600860009054906101000a900462ffffff1681565b505050565b6006805461076c90611827565b80601f016020809104026020016040519081016040528092919081815260200182805461079890611827565b80156107e55780601f106107ba576101008083540402835291602001916107e5565b820191906000526020600020905b8154815290600101906020018083116107c857829003601f168201915b505050505081565b600980546107fa90611827565b80601f016020809104026020016040519081016040528092919081815260200182805461082690611827565b80156108735780601f1061084857610100808354040283529160200191610873565b820191906000526020600020905b81548152906001019060200180831161085657829003601f168201915b505050505081565b6000600454905090565b505050565b6005805461089790611827565b80601f01602080910402602001604051908101604052809291908181526020018280546108c390611827565b80156109105780601f106108e557610100808354040283529160200191610910565b820191906000526020600020905b8154815290600101906020018083116108f357829003601f168201915b505050505081565b6000806001600084815260200190815260200160002060009054906101000a900473ffffffffffffffffffffffffffffffffffffffff169050600073ffffffffffffffffffffffffffffffffffffffff168173ffffffffffffffffffffffffffffffffffffffff16141561098b57600080fd5b6001600084815260200190815260200160002060009054906101000a900473ffffffffffffffffffffffffffffffffffffffff16915050919050565b60008073ffffffffffffffffffffffffffffffffffffffff168273ffffffffffffffffffffffffffffffffffffffff161415610a0257600080fd5b600260008373ffffffffffffffffffffffffffffffffffffffff1673ffffffffffffffffffffffffffffffffffffffff168152602001908152602001600020805490509050919050565b610a546110d8565b73ffffffffffffffffffffffffffffffffffffffff16610a72610ad4565b73ffffffffffffffffffffffffffffffffffffffff1614610ac8576040517f08c379a0000000000000000000000000000000000000000000000000000000008152600401610abf906118a5565b60405180910390fd5b610ad260006110e0565b565b60008060009054906101000a900473ffffffffffffffffffffffffffffffffffffffff16905090565b60016002811115610b1157610b106118c5565b5b600b60009054906101000a900460ff166002811115610b3357610b326118c5565b5b14610b3d57600080fd5b60006002600a54610b4e9190611923565b905080821015610b5d57600080fd5b6000600454905060046000815480929190610b7790611954565b919050555060405180604001604052803373ffffffffffffffffffffffffffffffffffffffff168152602001848152506003600083815260200190815260200160002060008201518160000160006101000a81548173ffffffffffffffffffffffffffffffffffffffff021916908373ffffffffffffffffffffffffffffffffffffffff160217905550602082015181600101559050507f1998aeef58ff11c1b0cba8a5c3d545e310bc8c53fe0e1219158b69fc798bfebd60405160405180910390a1505050565b600a5481565b5050565b5050505050565b610c586110d8565b73ffffffffffffffffffffffffffffffffffffffff16610c76610ad4565b73ffffffffffffffffffffffffffffffffffffffff1614610ccc576040517f08c379a0000000000000000000000000000000000000000000000000000000008152600401610cc3906118a5565b60405180910390fd5b80600a819055506001600b60006101000a81548160ff02191690836002811115610cf957610cf86118c5565b5b02179055507fb78f9de73ca0069a2bfc6463635707582269ea0b35047249542a65a7116dbee660405160405180910390a150565b610d356110d8565b73ffffffffffffffffffffffffffffffffffffffff16610d53610ad4565b73ffffffffffffffffffffffffffffffffffffffff1614610da9576040517f08c379a0000000000000000000000000000000000000000000000000000000008152600401610da0906118a5565b60405180910390fd5b60016002811115610dbd57610dbc6118c5565b5b600b60009054906101000a900460ff166002811115610ddf57610dde6118c5565b5b14610de957600080fd5b600454600182610df991906117c4565b10610e0357600080fd5b600060036000600184610e1691906117c4565b815260200190815260200160002060000160009054906101000a900473ffffffffffffffffffffffffffffffffffffffff1690506000610e546111a4565b9050816001600083815260200190815260200160002060006101000a81548173ffffffffffffffffffffffffffffffffffffffff021916908373ffffffffffffffffffffffffffffffffffffffff160217905550600260008373ffffffffffffffffffffffffffffffffffffffff1673ffffffffffffffffffffffffffffffffffffffff16815260200190815260200160002081908060018154018082558091505060019003906000526020600020016000909190919091505560005b600454811015610f735760036000828152602001908152602001600020600080820160006101000a81549073ffffffffffffffffffffffffffffffffffffffff0219169055600182016000905550508080610f6b90611954565b915050610f11565b5060006004819055506002600b60006101000a81548160ff02191690836002811115610fa257610fa16118c5565b5b02179055507f02c7e7afb4ec6b98852b343f3f1bb58ceab154308ee28a0c0d44693f92e7bb4f60405160405180910390a1505050565b600092915050565b610fe86110d8565b73ffffffffffffffffffffffffffffffffffffffff16611006610ad4565b73ffffffffffffffffffffffffffffffffffffffff161461105c576040517f08c379a0000000000000000000000000000000000000000000000000000000008152600401611053906118a5565b60405180910390fd5b600073ffffffffffffffffffffffffffffffffffffffff168173ffffffffffffffffffffffffffffffffffffffff1614156110cc576040517f08c379a00000000000000000000000000000000000000000000000000000000081526004016110c390611a0f565b60405180910390fd5b6110d5816110e0565b50565b600033905090565b60008060009054906101000a900473ffffffffffffffffffffffffffffffffffffffff169050816000806101000a81548173ffffffffffffffffffffffffffffffffffffffff021916908373ffffffffffffffffffffffffffffffffffffffff1602179055508173ffffffffffffffffffffffffffffffffffffffff168173ffffffffffffffffffffffffffffffffffffffff167f8be0079c531659141344cd1fd0a4f28419497f9722a3daafe3b4186f6b6457e060405160405180910390a35050565b600060056040516020016111b89190611ace565b6040516020818303038152906040528051906020012060001c905090565b6040518060400160405280600073ffffffffffffffffffffffffffffffffffffffff168152602001600081525090565b600080fd5b600080fd5b6000819050919050565b61122381611210565b811461122e57600080fd5b50565b6000813590506112408161121a565b92915050565b60006020828403121561125c5761125b611206565b5b600061126a84828501611231565b91505092915050565b600073ffffffffffffffffffffffffffffffffffffffff82169050919050565b600061129e82611273565b9050919050565b6112ae81611293565b82525050565b6112bd81611210565b82525050565b6040820160008201516112d960008501826112a5565b5060208201516112ec60208501826112b4565b50505050565b600060408201905061130760008301846112c3565b92915050565b60007fffffffff0000000000000000000000000000000000000000000000000000000082169050919050565b6113428161130d565b811461134d57600080fd5b50565b60008135905061135f81611339565b92915050565b60006020828403121561137b5761137a611206565b5b600061138984828501611350565b91505092915050565b60008115159050919050565b6113a781611392565b82525050565b60006020820190506113c2600083018461139e565b92915050565b6113d181611293565b82525050565b60006020820190506113ec60008301846113c8565b92915050565b6113fb81611293565b811461140657600080fd5b50565b600081359050611418816113f2565b92915050565b6000806040838503121561143557611434611206565b5b600061144385828601611409565b925050602061145485828601611231565b9150509250929050565b600081519050919050565b600082825260208201905092915050565b60005b8381101561149857808201518184015260208101905061147d565b838111156114a7576000848401525b50505050565b6000601f19601f8301169050919050565b60006114c98261145e565b6114d38185611469565b93506114e381856020860161147a565b6114ec816114ad565b840191505092915050565b6000602082019050818103600083015261151181846114be565b905092915050565b600062ffffff82169050919050565b61153181611519565b82525050565b600060208201905061154c6000830184611528565b92915050565b60008060006060848603121561156b5761156a611206565b5b600061157986828701611409565b935050602061158a86828701611409565b925050604061159b86828701611231565b9150509250925092565b6115ae81611210565b82525050565b60006020820190506115c960008301846115a5565b92915050565b6000602082840312156115e5576115e4611206565b5b60006115f384828501611409565b91505092915050565b61160581611392565b811461161057600080fd5b50565b600081359050611622816115fc565b92915050565b6000806040838503121561163f5761163e611206565b5b600061164d85828601611409565b925050602061165e85828601611613565b9150509250929050565b600080fd5b600080fd5b600080fd5b60008083601f84011261168d5761168c611668565b5b8235905067ffffffffffffffff8111156116aa576116a961166d565b5b6020830191508360018202830111156116c6576116c5611672565b5b9250929050565b6000806000806000608086880312156116e9576116e8611206565b5b60006116f788828901611409565b955050602061170888828901611409565b945050604061171988828901611231565b935050606086013567ffffffffffffffff81111561173a5761173961120b565b5b61174688828901611677565b92509250509295509295909350565b6000806040838503121561176c5761176b611206565b5b600061177a85828601611409565b925050602061178b85828601611409565b9150509250929050565b7f4e487b7100000000000000000000000000000000000000000000000000000000600052601160045260246000fd5b60006117cf82611210565b91506117da83611210565b9250828210156117ed576117ec611795565b5b828203905092915050565b7f4e487b7100000000000000000000000000000000000000000000000000000000600052602260045260246000fd5b6000600282049050600182168061183f57607f821691505b60208210811415611853576118526117f8565b5b50919050565b7f4f776e61626c653a2063616c6c6572206973206e6f7420746865206f776e6572600082015250565b600061188f602083611469565b915061189a82611859565b602082019050919050565b600060208201905081810360008301526118be81611882565b9050919050565b7f4e487b7100000000000000000000000000000000000000000000000000000000600052602160045260246000fd5b7f4e487b7100000000000000000000000000000000000000000000000000000000600052601260045260246000fd5b600061192e82611210565b915061193983611210565b925082611949576119486118f4565b5b828204905092915050565b600061195f82611210565b91507fffffffffffffffffffffffffffffffffffffffffffffffffffffffffffffffff82141561199257611991611795565b5b600182019050919050565b7f4f776e61626c653a206e6577206f776e657220697320746865207a65726f206160008201527f6464726573730000000000000000000000000000000000000000000000000000602082015250565b60006119f9602683611469565b9150611a048261199d565b604082019050919050565b60006020820190508181036000830152611a28816119ec565b9050919050565b600081905092915050565b60008190508160005260206000209050919050565b60008154611a5c81611827565b611a668186611a2f565b94506001821660008114611a815760018114611a9257611ac5565b60ff19831686528186019350611ac5565b611a9b85611a3a565b60005b83811015611abd57815481890152600182019150602081019050611a9e565b838801955050505b50505092915050565b6000611ada8284611a4f565b91508190509291505056fea26469706673582212207f16313537859197cb1fbbef41f81cc0256cdc9d7ddc37503c13b17294eeaa9a64736f6c634300080b0033",
  "immutableReferences": {},
  "source": "// SPDX-License-Identifier: GPL-3.0\r\n\r\npragma solidity ^0.8.0;\r\n\r\n\r\nimport \"./CarData.sol\";\r\nimport \"@openzeppelin/contracts/token/ERC721/IERC721.sol\";\r\n\r\n\r\n/** @title Car Ownership\r\n  * This contract is the one that is deployed for this dApp.\r\n  * It inherits CarData in order to deploye all the logic,\r\n  * and it adds ERC721 nature to the ticket tokens. In order\r\n  * for that to happen, ERC165 is also necessary.\r\n  * \r\n  * The documentation for all the implemented methods in this\r\n  * file are in its respective interfaces contracts\r\n  */\r\n\r\n\r\ncontract CarOwnership is CarData, IERC721{\r\n\r\n    mapping (bytes4 => bool) internal supportedInterfaces;\r\n    mapping (uint256 => address) tokenApprovals;\r\n\r\n    constructor (string memory _VIN, string memory _brand, string memory _model, uint24 _kilometraje, string memory _ipfsMetaData) \r\n        CarData(_VIN,_brand,_model,_kilometraje,_ipfsMetaData){\r\n        supportedInterfaces[0x80ac58cd] = true;\r\n    }\r\n\r\n\r\n    function supportsInterface(bytes4 interfaceID) external view returns (bool){\r\n\t\treturn supportedInterfaces[interfaceID];\r\n\t}   \r\n\r\n    //event Transfer(address indexed from, address indexed to, uint256 indexed tokenId);\r\n    //event Approval(address indexed owner, address indexed approved, uint256 indexed tokenId);\r\n    //event ApprovalForAll(address indexed owner, address indexed operator, bool approved);\r\n\r\n\r\n\r\n    function balanceOf(address owner) external view returns (uint256 balance){\r\n        require(owner != address(0));\r\n\t\treturn ownerToCars[owner].length;\r\n    }\r\n\r\n    function ownerOf(uint256 tokenId) external view returns (address owner){\r\n        address carOwner = carToOwner[tokenId];\r\n    \trequire(carOwner != address(0));\r\n\t\treturn carToOwner[tokenId];\r\n    }\r\n\r\n    function safeTransferFrom(address from,address to,uint256 tokenId) external{\r\n\r\n    }\r\n\r\n    function transferFrom(address from,address to,uint256 tokenId) external{\r\n\r\n    }\r\n\r\n    function approve(address to, uint256 tokenId) external{\r\n\r\n    }\r\n\r\n    function getApproved(uint256 tokenId) external view returns (address operator){\r\n\r\n    }\r\n\r\n    function setApprovalForAll(address operator, bool _approved) external{\r\n\r\n    }\r\n\r\n    function isApprovedForAll(address owner, address operator) external view returns (bool){\r\n\r\n    }\r\n\r\n    function safeTransferFrom(address from, address to, uint256 tokenId, bytes calldata data) external{\r\n\r\n    }\r\n}",
  "sourcePath": "C:\\Users\\ruben\\Documents\\dCars\\contracts\\CarOwnership.sol",
  "compiler": {
    "name": "solc",
    "version": "0.8.11+commit.d7f03943.Emscripten.clang"
  },
  "schemaVersion": "3.4.4",
  "updatedAt": "2022-02-15T18:46:41.781Z",
  "devdoc": {
    "kind": "dev",
    "methods": {
      "approve(address,uint256)": {
        "details": "Gives permission to `to` to transfer `tokenId` token to another account. The approval is cleared when the token is transferred. Only a single account can be approved at a time, so approving the zero address clears previous approvals. Requirements: - The caller must own the token or be an approved operator. - `tokenId` must exist. Emits an {Approval} event."
      },
      "balanceOf(address)": {
        "details": "Returns the number of tokens in ``owner``'s account."
      },
      "getApproved(uint256)": {
        "details": "Returns the account approved for `tokenId` token. Requirements: - `tokenId` must exist."
      },
      "isApprovedForAll(address,address)": {
        "details": "Returns if the `operator` is allowed to manage all of the assets of `owner`. See {setApprovalForAll}"
      },
      "owner()": {
        "details": "Returns the address of the current owner."
      },
      "ownerOf(uint256)": {
        "details": "Returns the owner of the `tokenId` token. Requirements: - `tokenId` must exist."
      },
      "renounceOwnership()": {
        "details": "Leaves the contract without owner. It will not be possible to call `onlyOwner` functions anymore. Can only be called by the current owner. NOTE: Renouncing ownership will leave the contract without an owner, thereby removing any functionality that is only available to the owner."
      },
      "safeTransferFrom(address,address,uint256)": {
        "details": "Safely transfers `tokenId` token from `from` to `to`, checking first that contract recipients are aware of the ERC721 protocol to prevent tokens from being forever locked. Requirements: - `from` cannot be the zero address. - `to` cannot be the zero address. - `tokenId` token must exist and be owned by `from`. - If the caller is not `from`, it must be have been allowed to move this token by either {approve} or {setApprovalForAll}. - If `to` refers to a smart contract, it must implement {IERC721Receiver-onERC721Received}, which is called upon a safe transfer. Emits a {Transfer} event."
      },
      "safeTransferFrom(address,address,uint256,bytes)": {
        "details": "Safely transfers `tokenId` token from `from` to `to`. Requirements: - `from` cannot be the zero address. - `to` cannot be the zero address. - `tokenId` token must exist and be owned by `from`. - If the caller is not `from`, it must be approved to move this token by either {approve} or {setApprovalForAll}. - If `to` refers to a smart contract, it must implement {IERC721Receiver-onERC721Received}, which is called upon a safe transfer. Emits a {Transfer} event."
      },
      "setApprovalForAll(address,bool)": {
        "details": "Approve or remove `operator` as an operator for the caller. Operators can call {transferFrom} or {safeTransferFrom} for any token owned by the caller. Requirements: - The `operator` cannot be the caller. Emits an {ApprovalForAll} event."
      },
      "transferFrom(address,address,uint256)": {
        "details": "Transfers `tokenId` token from `from` to `to`. WARNING: Usage of this method is discouraged, use {safeTransferFrom} whenever possible. Requirements: - `from` cannot be the zero address. - `to` cannot be the zero address. - `tokenId` token must be owned by `from`. - If the caller is not `from`, it must be approved to move this token by either {approve} or {setApprovalForAll}. Emits a {Transfer} event."
      },
      "transferOwnership(address)": {
        "details": "Transfers ownership of the contract to a new account (`newOwner`). Can only be called by the current owner."
      }
    },
    "title": "Car Ownership This contract is the one that is deployed for this dApp. It inherits CarData in order to deploye all the logic, and it adds ERC721 nature to the ticket tokens. In order for that to happen, ERC165 is also necessary.  The documentation for all the implemented methods in this file are in its respective interfaces contracts",
    "version": 1
  },
  "userdoc": {
    "kind": "user",
    "methods": {},
    "version": 1
  }
}