{
  "contractName": "CarOwnership",
  "abi": [
    {
      "anonymous": false,
      "inputs": [
        {
          "indexed": true,
          "internalType": "address",
          "name": "owner",
          "type": "address"
        },
        {
          "indexed": true,
          "internalType": "address",
          "name": "approved",
          "type": "address"
        },
        {
          "indexed": true,
          "internalType": "uint256",
          "name": "tokenId",
          "type": "uint256"
        }
      ],
      "name": "Approval",
      "type": "event"
    },
    {
      "anonymous": false,
      "inputs": [
        {
          "indexed": true,
          "internalType": "address",
          "name": "owner",
          "type": "address"
        },
        {
          "indexed": true,
          "internalType": "address",
          "name": "operator",
          "type": "address"
        },
        {
          "indexed": false,
          "internalType": "bool",
          "name": "approved",
          "type": "bool"
        }
      ],
      "name": "ApprovalForAll",
      "type": "event"
    },
    {
      "anonymous": false,
      "inputs": [
        {
          "indexed": false,
          "internalType": "uint256",
          "name": "id",
          "type": "uint256"
        },
        {
          "indexed": false,
          "internalType": "string",
          "name": "brand",
          "type": "string"
        },
        {
          "indexed": false,
          "internalType": "string",
          "name": "model",
          "type": "string"
        }
      ],
      "name": "Created",
      "type": "event"
    },
    {
      "anonymous": false,
      "inputs": [
        {
          "indexed": true,
          "internalType": "address",
          "name": "previousOwner",
          "type": "address"
        },
        {
          "indexed": true,
          "internalType": "address",
          "name": "newOwner",
          "type": "address"
        }
      ],
      "name": "OwnershipTransferred",
      "type": "event"
    },
    {
      "anonymous": false,
      "inputs": [
        {
          "indexed": true,
          "internalType": "address",
          "name": "from",
          "type": "address"
        },
        {
          "indexed": true,
          "internalType": "address",
          "name": "to",
          "type": "address"
        },
        {
          "indexed": true,
          "internalType": "uint256",
          "name": "tokenId",
          "type": "uint256"
        }
      ],
      "name": "Transfer",
      "type": "event"
    },
    {
      "anonymous": false,
      "inputs": [],
      "name": "bid",
      "type": "event"
    },
    {
      "anonymous": false,
      "inputs": [
        {
          "indexed": false,
          "internalType": "uint256",
          "name": "id",
          "type": "uint256"
        },
        {
          "indexed": false,
          "internalType": "uint256",
          "name": "price",
          "type": "uint256"
        }
      ],
      "name": "onSale",
      "type": "event"
    },
    {
      "anonymous": false,
      "inputs": [],
      "name": "sold",
      "type": "event"
    },
    {
      "inputs": [
        {
          "internalType": "uint256",
          "name": "id",
          "type": "uint256"
        },
        {
          "internalType": "uint256",
          "name": "_price",
          "type": "uint256"
        }
      ],
      "name": "List",
      "outputs": [],
      "stateMutability": "nonpayable",
      "type": "function"
    },
    {
      "inputs": [
        {
          "internalType": "string",
          "name": "_VIN",
          "type": "string"
        },
        {
          "internalType": "string",
          "name": "_brand",
          "type": "string"
        },
        {
          "internalType": "string",
          "name": "_model",
          "type": "string"
        },
        {
          "internalType": "uint24",
          "name": "_kilometraje",
          "type": "uint24"
        },
        {
          "internalType": "string",
          "name": "_ipfsMetaData",
          "type": "string"
        }
      ],
      "name": "createNewCar",
      "outputs": [],
      "stateMutability": "nonpayable",
      "type": "function"
    },
    {
      "inputs": [
        {
          "internalType": "string",
          "name": "_VIN",
          "type": "string"
        },
        {
          "internalType": "string",
          "name": "_brand",
          "type": "string"
        },
        {
          "internalType": "string",
          "name": "_model",
          "type": "string"
        },
        {
          "internalType": "uint24",
          "name": "_kilometraje",
          "type": "uint24"
        },
        {
          "internalType": "string",
          "name": "_ipfsMetaData",
          "type": "string"
        },
        {
          "internalType": "uint256",
          "name": "_price",
          "type": "uint256"
        }
      ],
      "name": "createNewCar",
      "outputs": [],
      "stateMutability": "nonpayable",
      "type": "function"
    },
    {
      "inputs": [],
      "name": "owner",
      "outputs": [
        {
          "internalType": "address",
          "name": "",
          "type": "address"
        }
      ],
      "stateMutability": "view",
      "type": "function",
      "constant": true
    },
    {
      "inputs": [
        {
          "internalType": "uint256",
          "name": "id",
          "type": "uint256"
        },
        {
          "internalType": "uint256",
          "name": "_bid",
          "type": "uint256"
        }
      ],
      "name": "placeBid",
      "outputs": [],
      "stateMutability": "payable",
      "type": "function",
      "payable": true
    },
    {
      "inputs": [],
      "name": "renounceOwnership",
      "outputs": [],
      "stateMutability": "nonpayable",
      "type": "function"
    },
    {
      "inputs": [
        {
          "internalType": "uint256",
          "name": "id",
          "type": "uint256"
        },
        {
          "internalType": "uint256",
          "name": "i",
          "type": "uint256"
        }
      ],
      "name": "showOffer",
      "outputs": [
        {
          "components": [
            {
              "internalType": "address",
              "name": "buyer",
              "type": "address"
            },
            {
              "internalType": "uint256",
              "name": "bid",
              "type": "uint256"
            }
          ],
          "internalType": "struct CarData.offer",
          "name": "",
          "type": "tuple"
        }
      ],
      "stateMutability": "view",
      "type": "function",
      "constant": true
    },
    {
      "inputs": [
        {
          "internalType": "address",
          "name": "newOwner",
          "type": "address"
        }
      ],
      "name": "transferOwnership",
      "outputs": [],
      "stateMutability": "nonpayable",
      "type": "function"
    },
    {
      "inputs": [
        {
          "internalType": "bytes4",
          "name": "interfaceID",
          "type": "bytes4"
        }
      ],
      "name": "supportsInterface",
      "outputs": [
        {
          "internalType": "bool",
          "name": "",
          "type": "bool"
        }
      ],
      "stateMutability": "view",
      "type": "function",
      "constant": true
    },
    {
      "inputs": [
        {
          "internalType": "address",
          "name": "owner",
          "type": "address"
        }
      ],
      "name": "balanceOf",
      "outputs": [
        {
          "internalType": "uint256",
          "name": "balance",
          "type": "uint256"
        }
      ],
      "stateMutability": "view",
      "type": "function",
      "constant": true
    },
    {
      "inputs": [
        {
          "internalType": "uint256",
          "name": "tokenId",
          "type": "uint256"
        }
      ],
      "name": "ownerOf",
      "outputs": [
        {
          "internalType": "address",
          "name": "owner",
          "type": "address"
        }
      ],
      "stateMutability": "view",
      "type": "function",
      "constant": true
    },
    {
      "inputs": [
        {
          "internalType": "address",
          "name": "from",
          "type": "address"
        },
        {
          "internalType": "address",
          "name": "to",
          "type": "address"
        },
        {
          "internalType": "uint256",
          "name": "tokenId",
          "type": "uint256"
        }
      ],
      "name": "transferFrom",
      "outputs": [],
      "stateMutability": "payable",
      "type": "function",
      "payable": true
    },
    {
      "inputs": [
        {
          "internalType": "address",
          "name": "to",
          "type": "address"
        },
        {
          "internalType": "uint256",
          "name": "tokenId",
          "type": "uint256"
        }
      ],
      "name": "approve",
      "outputs": [],
      "stateMutability": "nonpayable",
      "type": "function"
    },
    {
      "inputs": [
        {
          "internalType": "uint256",
          "name": "tokenId",
          "type": "uint256"
        }
      ],
      "name": "getApproved",
      "outputs": [
        {
          "internalType": "address",
          "name": "operator",
          "type": "address"
        }
      ],
      "stateMutability": "view",
      "type": "function",
      "constant": true
    },
    {
      "inputs": [
        {
          "internalType": "address",
          "name": "operator",
          "type": "address"
        },
        {
          "internalType": "bool",
          "name": "_approved",
          "type": "bool"
        }
      ],
      "name": "setApprovalForAll",
      "outputs": [],
      "stateMutability": "nonpayable",
      "type": "function"
    },
    {
      "inputs": [
        {
          "internalType": "address",
          "name": "owner",
          "type": "address"
        },
        {
          "internalType": "address",
          "name": "operator",
          "type": "address"
        }
      ],
      "name": "isApprovedForAll",
      "outputs": [
        {
          "internalType": "bool",
          "name": "",
          "type": "bool"
        }
      ],
      "stateMutability": "view",
      "type": "function",
      "constant": true
    },
    {
      "inputs": [
        {
          "internalType": "address",
          "name": "from",
          "type": "address"
        },
        {
          "internalType": "address",
          "name": "to",
          "type": "address"
        },
        {
          "internalType": "uint256",
          "name": "tokenId",
          "type": "uint256"
        }
      ],
      "name": "safeTransferFrom",
      "outputs": [],
      "stateMutability": "payable",
      "type": "function",
      "payable": true
    },
    {
      "inputs": [
        {
          "internalType": "address",
          "name": "from",
          "type": "address"
        },
        {
          "internalType": "address",
          "name": "to",
          "type": "address"
        },
        {
          "internalType": "uint256",
          "name": "tokenId",
          "type": "uint256"
        },
        {
          "internalType": "bytes",
          "name": "data",
          "type": "bytes"
        }
      ],
      "name": "safeTransferFrom",
      "outputs": [],
      "stateMutability": "payable",
      "type": "function",
      "payable": true
    }
  ],
  "bytecode": "0x608060405260006004553480156200001657600080fd5b50620000376200002b6200003d60201b60201c565b6200004560201b60201c565b62000109565b600033905090565b60008060009054906101000a900473ffffffffffffffffffffffffffffffffffffffff169050816000806101000a81548173ffffffffffffffffffffffffffffffffffffffff021916908373ffffffffffffffffffffffffffffffffffffffff1602179055508173ffffffffffffffffffffffffffffffffffffffff168173ffffffffffffffffffffffffffffffffffffffff167f8be0079c531659141344cd1fd0a4f28419497f9722a3daafe3b4186f6b6457e060405160405180910390a35050565b61260d80620001196000396000f3fe6080604052600436106101095760003560e01c806377b5cc0b11610095578063a22cb46511610064578063a22cb46514610350578063b88d4fde14610379578063c38e783214610395578063e985e9c5146103be578063f2fde38b146103fb57610109565b806377b5cc0b146102965780638770b0b7146102bf5780638da5cb5b146102fc578063920ec3cb1461032757610109565b806342842e0e116100dc57806342842e0e146101cd57806357c90de5146101e95780636352211e1461020557806370a0823114610242578063715018a61461027f57610109565b806301ffc9a71461010e578063081812fc1461014b578063095ea7b31461018857806323b872dd146101b1575b600080fd5b34801561011a57600080fd5b50610135600480360381019061013091906119d0565b610424565b6040516101429190611a18565b60405180910390f35b34801561015757600080fd5b50610172600480360381019061016d9190611a69565b61048c565b60405161017f9190611ad7565b60405180910390f35b34801561019457600080fd5b506101af60048036038101906101aa9190611b1e565b6104c9565b005b6101cb60048036038101906101c69190611b5e565b61060a565b005b6101e760048036038101906101e29190611b5e565b610a46565b005b61020360048036038101906101fe9190611bb1565b610a66565b005b34801561021157600080fd5b5061022c60048036038101906102279190611a69565b610bd4565b6040516102399190611ad7565b60405180910390f35b34801561024e57600080fd5b5061026960048036038101906102649190611bf1565b610c83565b6040516102769190611c2d565b60405180910390f35b34801561028b57600080fd5b50610294610d08565b005b3480156102a257600080fd5b506102bd60048036038101906102b89190611dc9565b610d90565b005b3480156102cb57600080fd5b506102e660048036038101906102e19190611bb1565b610fa4565b6040516102f39190611f01565b60405180910390f35b34801561030857600080fd5b506103116110b7565b60405161031e9190611ad7565b60405180910390f35b34801561033357600080fd5b5061034e60048036038101906103499190611f1c565b6110e0565b005b34801561035c57600080fd5b5061037760048036038101906103729190612045565b61132e565b005b610393600480360381019061038e9190612126565b611464565b005b3480156103a157600080fd5b506103bc60048036038101906103b79190611bb1565b611475565b005b3480156103ca57600080fd5b506103e560048036038101906103e091906121a9565b611583565b6040516103f29190611a18565b60405180910390f35b34801561040757600080fd5b50610422600480360381019061041d9190611bf1565b611617565b005b600060076000837bffffffffffffffffffffffffffffffffffffffffffffffffffffffff19167bffffffffffffffffffffffffffffffffffffffffffffffffffffffff1916815260200190815260200160002060009054906101000a900460ff169050919050565b60006008600083815260200190815260200160002060009054906101000a900473ffffffffffffffffffffffffffffffffffffffff169050919050565b60006104d482610bd4565b90508073ffffffffffffffffffffffffffffffffffffffff168373ffffffffffffffffffffffffffffffffffffffff16141561050f57600080fd5b8073ffffffffffffffffffffffffffffffffffffffff163373ffffffffffffffffffffffffffffffffffffffff16148061054f575061054e8133611583565b5b61055857600080fd5b826008600084815260200190815260200160002060006101000a81548173ffffffffffffffffffffffffffffffffffffffff021916908373ffffffffffffffffffffffffffffffffffffffff160217905550818373ffffffffffffffffffffffffffffffffffffffff168273ffffffffffffffffffffffffffffffffffffffff167f8c5be1e5ebec7d5bd14f71427d1e84f3dd0314c0f7b2291e5b200ac8c7c3b92560405160405180910390a4505050565b610614338261170f565b61061d57600080fd5b600073ffffffffffffffffffffffffffffffffffffffff168273ffffffffffffffffffffffffffffffffffffffff16141561065757600080fd5b6001600260008573ffffffffffffffffffffffffffffffffffffffff1673ffffffffffffffffffffffffffffffffffffffff16815260200190815260200160002080549050141561070c57600260008473ffffffffffffffffffffffffffffffffffffffff1673ffffffffffffffffffffffffffffffffffffffff1681526020019081526020016000208054806106f1576106f06121e9565b5b60019003818190600052602060002001600090559055610936565b60005b6001600260008673ffffffffffffffffffffffffffffffffffffffff1673ffffffffffffffffffffffffffffffffffffffff1681526020019081526020016000208054905061075e9190612247565b8110156109345781600260008673ffffffffffffffffffffffffffffffffffffffff1673ffffffffffffffffffffffffffffffffffffffff16815260200190815260200160002082815481106107b7576107b661227b565b5b9060005260206000200154141561092157600260008573ffffffffffffffffffffffffffffffffffffffff1673ffffffffffffffffffffffffffffffffffffffff1681526020019081526020016000206001600260008773ffffffffffffffffffffffffffffffffffffffff1673ffffffffffffffffffffffffffffffffffffffff168152602001908152602001600020805490506108569190612247565b815481106108675761086661227b565b5b9060005260206000200154600260008673ffffffffffffffffffffffffffffffffffffffff1673ffffffffffffffffffffffffffffffffffffffff16815260200190815260200160002082815481106108c3576108c261227b565b5b9060005260206000200181905550600260008573ffffffffffffffffffffffffffffffffffffffff1673ffffffffffffffffffffffffffffffffffffffff168152602001908152602001600020600061091c9190611870565b610934565b808061092c906122aa565b91505061070f565b505b816001600083815260200190815260200160002060006101000a81548173ffffffffffffffffffffffffffffffffffffffff021916908373ffffffffffffffffffffffffffffffffffffffff160217905550600260008373ffffffffffffffffffffffffffffffffffffffff1673ffffffffffffffffffffffffffffffffffffffff16815260200190815260200160002081908060018154018082558091505060019003906000526020600020016000909190919091505560006008600083815260200190815260200160002060006101000a81548173ffffffffffffffffffffffffffffffffffffffff021916908373ffffffffffffffffffffffffffffffffffffffff160217905550505050565b610a6183838360405180602001604052806000815250611464565b505050565b60006001811115610a7a57610a796122f3565b5b600660009054906101000a900460ff166001811115610a9c57610a9b6122f3565b5b14610aa657600080fd5b6000600260058481548110610abe57610abd61227b565b5b906000526020600020906006020160050154610ada9190612351565b905080821015610ae957600080fd5b6003600084815260200190815260200160002060405180604001604052803373ffffffffffffffffffffffffffffffffffffffff16815260200184815250908060018154018082558091505060019003906000526020600020906002020160009091909190915060008201518160000160006101000a81548173ffffffffffffffffffffffffffffffffffffffff021916908373ffffffffffffffffffffffffffffffffffffffff1602179055506020820151816001015550507f1998aeef58ff11c1b0cba8a5c3d545e310bc8c53fe0e1219158b69fc798bfebd60405160405180910390a1505050565b6000806001600084815260200190815260200160002060009054906101000a900473ffffffffffffffffffffffffffffffffffffffff169050600073ffffffffffffffffffffffffffffffffffffffff168173ffffffffffffffffffffffffffffffffffffffff161415610c4757600080fd5b6001600084815260200190815260200160002060009054906101000a900473ffffffffffffffffffffffffffffffffffffffff16915050919050565b60008073ffffffffffffffffffffffffffffffffffffffff168273ffffffffffffffffffffffffffffffffffffffff161415610cbe57600080fd5b600260008373ffffffffffffffffffffffffffffffffffffffff1673ffffffffffffffffffffffffffffffffffffffff168152602001908152602001600020805490509050919050565b610d106117a4565b73ffffffffffffffffffffffffffffffffffffffff16610d2e6110b7565b73ffffffffffffffffffffffffffffffffffffffff1614610d84576040517f08c379a0000000000000000000000000000000000000000000000000000000008152600401610d7b906123df565b60405180910390fd5b610d8e60006117ac565b565b60056040518060c001604052808781526020018681526020018581526020018462ffffff168152602001838152602001600081525090806001815401808255809150506001900390600052602060002090600602016000909190919091506000820151816000019080519060200190610e0a929190611891565b506020820151816001019080519060200190610e27929190611891565b506040820151816002019080519060200190610e44929190611891565b5060608201518160030160006101000a81548162ffffff021916908362ffffff1602179055506080820151816004019080519060200190610e86929190611891565b5060a08201518160050155505060006001600580549050610ea79190612247565b9050336001600083815260200190815260200160002060006101000a81548173ffffffffffffffffffffffffffffffffffffffff021916908373ffffffffffffffffffffffffffffffffffffffff160217905550600260003373ffffffffffffffffffffffffffffffffffffffff1673ffffffffffffffffffffffffffffffffffffffff1681526020019081526020016000208190806001815401808255809150506001900390600052602060002001600090919091909150557f6fc9fd297ab2cdd4c0c578f4853d2368a74696b4aa923f1a7760b219b3d3ad06818686604051610f9493929190612476565b60405180910390a1505050505050565b610fac611917565b600454600183610fbc9190612247565b10610fc657600080fd5b600060036000858152602001908152602001600020805480602002602001604051908101604052809291908181526020016000905b8282101561108d57838290600052602060002090600202016040518060400160405290816000820160009054906101000a900473ffffffffffffffffffffffffffffffffffffffff1673ffffffffffffffffffffffffffffffffffffffff1673ffffffffffffffffffffffffffffffffffffffff16815260200160018201548152505081526020019060010190610ffb565b5050505090508083815181106110a6576110a561227b565b5b602002602001015191505092915050565b60008060009054906101000a900473ffffffffffffffffffffffffffffffffffffffff16905090565b60056040518060c001604052808881526020018781526020018681526020018562ffffff16815260200184815260200160008152509080600181540180825580915050600190039060005260206000209060060201600090919091909150600082015181600001908051906020019061115a929190611891565b506020820151816001019080519060200190611177929190611891565b506040820151816002019080519060200190611194929190611891565b5060608201518160030160006101000a81548162ffffff021916908362ffffff16021790555060808201518160040190805190602001906111d6929190611891565b5060a082015181600501555050600060016005805490506111f79190612247565b9050336001600083815260200190815260200160002060006101000a81548173ffffffffffffffffffffffffffffffffffffffff021916908373ffffffffffffffffffffffffffffffffffffffff160217905550600260003373ffffffffffffffffffffffffffffffffffffffff1673ffffffffffffffffffffffffffffffffffffffff1681526020019081526020016000208190806001815401808255809150506001900390600052602060002001600090919091909150557f6fc9fd297ab2cdd4c0c578f4853d2368a74696b4aa923f1a7760b219b3d3ad068187876040516112e493929190612476565b60405180910390a17f6c6a648185e78bce86957b13c7ce58dc2d2e825b2c2c452ad941e89b0eeb0aa8818360405161131d9291906124bb565b60405180910390a150505050505050565b3373ffffffffffffffffffffffffffffffffffffffff168273ffffffffffffffffffffffffffffffffffffffff16141561136757600080fd5b80600960003373ffffffffffffffffffffffffffffffffffffffff1673ffffffffffffffffffffffffffffffffffffffff16815260200190815260200160002060008473ffffffffffffffffffffffffffffffffffffffff1673ffffffffffffffffffffffffffffffffffffffff16815260200190815260200160002060006101000a81548160ff0219169083151502179055508173ffffffffffffffffffffffffffffffffffffffff163373ffffffffffffffffffffffffffffffffffffffff167f17307eab39ab6107e8899845ad3d59bd9653f200f220920489ca2b5937696c31836040516114589190611a18565b60405180910390a35050565b61146f84848461060a565b50505050565b61147d6117a4565b73ffffffffffffffffffffffffffffffffffffffff1661149b6110b7565b73ffffffffffffffffffffffffffffffffffffffff16146114f1576040517f08c379a00000000000000000000000000000000000000000000000000000000081526004016114e8906123df565b60405180910390fd5b80600583815481106115065761150561227b565b5b9060005260206000209060060201600501819055506000600660006101000a81548160ff02191690836001811115611541576115406122f3565b5b02179055507f6c6a648185e78bce86957b13c7ce58dc2d2e825b2c2c452ad941e89b0eeb0aa882826040516115779291906124bb565b60405180910390a15050565b6000600960008473ffffffffffffffffffffffffffffffffffffffff1673ffffffffffffffffffffffffffffffffffffffff16815260200190815260200160002060008373ffffffffffffffffffffffffffffffffffffffff1673ffffffffffffffffffffffffffffffffffffffff16815260200190815260200160002060009054906101000a900460ff16905092915050565b61161f6117a4565b73ffffffffffffffffffffffffffffffffffffffff1661163d6110b7565b73ffffffffffffffffffffffffffffffffffffffff1614611693576040517f08c379a000000000000000000000000000000000000000000000000000000000815260040161168a906123df565b60405180910390fd5b600073ffffffffffffffffffffffffffffffffffffffff168173ffffffffffffffffffffffffffffffffffffffff161415611703576040517f08c379a00000000000000000000000000000000000000000000000000000000081526004016116fa90612556565b60405180910390fd5b61170c816117ac565b50565b60008061171b83610bd4565b90508073ffffffffffffffffffffffffffffffffffffffff168473ffffffffffffffffffffffffffffffffffffffff16148061178a57508373ffffffffffffffffffffffffffffffffffffffff166117728461048c565b73ffffffffffffffffffffffffffffffffffffffff16145b8061179b575061179a8185611583565b5b91505092915050565b600033905090565b60008060009054906101000a900473ffffffffffffffffffffffffffffffffffffffff169050816000806101000a81548173ffffffffffffffffffffffffffffffffffffffff021916908373ffffffffffffffffffffffffffffffffffffffff1602179055508173ffffffffffffffffffffffffffffffffffffffff168173ffffffffffffffffffffffffffffffffffffffff167f8be0079c531659141344cd1fd0a4f28419497f9722a3daafe3b4186f6b6457e060405160405180910390a35050565b508054600082559060005260206000209081019061188e9190611947565b50565b82805461189d906125a5565b90600052602060002090601f0160209004810192826118bf5760008555611906565b82601f106118d857805160ff1916838001178555611906565b82800160010185558215611906579182015b828111156119055782518255916020019190600101906118ea565b5b5090506119139190611947565b5090565b6040518060400160405280600073ffffffffffffffffffffffffffffffffffffffff168152602001600081525090565b5b80821115611960576000816000905550600101611948565b5090565b6000604051905090565b600080fd5b600080fd5b60007fffffffff0000000000000000000000000000000000000000000000000000000082169050919050565b6119ad81611978565b81146119b857600080fd5b50565b6000813590506119ca816119a4565b92915050565b6000602082840312156119e6576119e561196e565b5b60006119f4848285016119bb565b91505092915050565b60008115159050919050565b611a12816119fd565b82525050565b6000602082019050611a2d6000830184611a09565b92915050565b6000819050919050565b611a4681611a33565b8114611a5157600080fd5b50565b600081359050611a6381611a3d565b92915050565b600060208284031215611a7f57611a7e61196e565b5b6000611a8d84828501611a54565b91505092915050565b600073ffffffffffffffffffffffffffffffffffffffff82169050919050565b6000611ac182611a96565b9050919050565b611ad181611ab6565b82525050565b6000602082019050611aec6000830184611ac8565b92915050565b611afb81611ab6565b8114611b0657600080fd5b50565b600081359050611b1881611af2565b92915050565b60008060408385031215611b3557611b3461196e565b5b6000611b4385828601611b09565b9250506020611b5485828601611a54565b9150509250929050565b600080600060608486031215611b7757611b7661196e565b5b6000611b8586828701611b09565b9350506020611b9686828701611b09565b9250506040611ba786828701611a54565b9150509250925092565b60008060408385031215611bc857611bc761196e565b5b6000611bd685828601611a54565b9250506020611be785828601611a54565b9150509250929050565b600060208284031215611c0757611c0661196e565b5b6000611c1584828501611b09565b91505092915050565b611c2781611a33565b82525050565b6000602082019050611c426000830184611c1e565b92915050565b600080fd5b600080fd5b6000601f19601f8301169050919050565b7f4e487b7100000000000000000000000000000000000000000000000000000000600052604160045260246000fd5b611c9b82611c52565b810181811067ffffffffffffffff82111715611cba57611cb9611c63565b5b80604052505050565b6000611ccd611964565b9050611cd98282611c92565b919050565b600067ffffffffffffffff821115611cf957611cf8611c63565b5b611d0282611c52565b9050602081019050919050565b82818337600083830152505050565b6000611d31611d2c84611cde565b611cc3565b905082815260208101848484011115611d4d57611d4c611c4d565b5b611d58848285611d0f565b509392505050565b600082601f830112611d7557611d74611c48565b5b8135611d85848260208601611d1e565b91505092915050565b600062ffffff82169050919050565b611da681611d8e565b8114611db157600080fd5b50565b600081359050611dc381611d9d565b92915050565b600080600080600060a08688031215611de557611de461196e565b5b600086013567ffffffffffffffff811115611e0357611e02611973565b5b611e0f88828901611d60565b955050602086013567ffffffffffffffff811115611e3057611e2f611973565b5b611e3c88828901611d60565b945050604086013567ffffffffffffffff811115611e5d57611e5c611973565b5b611e6988828901611d60565b9350506060611e7a88828901611db4565b925050608086013567ffffffffffffffff811115611e9b57611e9a611973565b5b611ea788828901611d60565b9150509295509295909350565b611ebd81611ab6565b82525050565b611ecc81611a33565b82525050565b604082016000820151611ee86000850182611eb4565b506020820151611efb6020850182611ec3565b50505050565b6000604082019050611f166000830184611ed2565b92915050565b60008060008060008060c08789031215611f3957611f3861196e565b5b600087013567ffffffffffffffff811115611f5757611f56611973565b5b611f6389828a01611d60565b965050602087013567ffffffffffffffff811115611f8457611f83611973565b5b611f9089828a01611d60565b955050604087013567ffffffffffffffff811115611fb157611fb0611973565b5b611fbd89828a01611d60565b9450506060611fce89828a01611db4565b935050608087013567ffffffffffffffff811115611fef57611fee611973565b5b611ffb89828a01611d60565b92505060a061200c89828a01611a54565b9150509295509295509295565b612022816119fd565b811461202d57600080fd5b50565b60008135905061203f81612019565b92915050565b6000806040838503121561205c5761205b61196e565b5b600061206a85828601611b09565b925050602061207b85828601612030565b9150509250929050565b600067ffffffffffffffff8211156120a05761209f611c63565b5b6120a982611c52565b9050602081019050919050565b60006120c96120c484612085565b611cc3565b9050828152602081018484840111156120e5576120e4611c4d565b5b6120f0848285611d0f565b509392505050565b600082601f83011261210d5761210c611c48565b5b813561211d8482602086016120b6565b91505092915050565b600080600080608085870312156121405761213f61196e565b5b600061214e87828801611b09565b945050602061215f87828801611b09565b935050604061217087828801611a54565b925050606085013567ffffffffffffffff81111561219157612190611973565b5b61219d878288016120f8565b91505092959194509250565b600080604083850312156121c0576121bf61196e565b5b60006121ce85828601611b09565b92505060206121df85828601611b09565b9150509250929050565b7f4e487b7100000000000000000000000000000000000000000000000000000000600052603160045260246000fd5b7f4e487b7100000000000000000000000000000000000000000000000000000000600052601160045260246000fd5b600061225282611a33565b915061225d83611a33565b9250828210156122705761226f612218565b5b828203905092915050565b7f4e487b7100000000000000000000000000000000000000000000000000000000600052603260045260246000fd5b60006122b582611a33565b91507fffffffffffffffffffffffffffffffffffffffffffffffffffffffffffffffff8214156122e8576122e7612218565b5b600182019050919050565b7f4e487b7100000000000000000000000000000000000000000000000000000000600052602160045260246000fd5b7f4e487b7100000000000000000000000000000000000000000000000000000000600052601260045260246000fd5b600061235c82611a33565b915061236783611a33565b92508261237757612376612322565b5b828204905092915050565b600082825260208201905092915050565b7f4f776e61626c653a2063616c6c6572206973206e6f7420746865206f776e6572600082015250565b60006123c9602083612382565b91506123d482612393565b602082019050919050565b600060208201905081810360008301526123f8816123bc565b9050919050565b600081519050919050565b60005b8381101561242857808201518184015260208101905061240d565b83811115612437576000848401525b50505050565b6000612448826123ff565b6124528185612382565b935061246281856020860161240a565b61246b81611c52565b840191505092915050565b600060608201905061248b6000830186611c1e565b818103602083015261249d818561243d565b905081810360408301526124b1818461243d565b9050949350505050565b60006040820190506124d06000830185611c1e565b6124dd6020830184611c1e565b9392505050565b7f4f776e61626c653a206e6577206f776e657220697320746865207a65726f206160008201527f6464726573730000000000000000000000000000000000000000000000000000602082015250565b6000612540602683612382565b915061254b826124e4565b604082019050919050565b6000602082019050818103600083015261256f81612533565b9050919050565b7f4e487b7100000000000000000000000000000000000000000000000000000000600052602260045260246000fd5b600060028204905060018216806125bd57607f821691505b602082108114156125d1576125d0612576565b5b5091905056fea264697066735822122041ee65540735dcda49f769486aa203ecb841e1aeb51a3e6aec0c8aafe370e0f164736f6c634300080b0033",
  "immutableReferences": {},
  "source": "// SPDX-License-Identifier: GPL-3.0\r\n\r\npragma solidity ^0.8.0;\r\n\r\n\r\nimport \"./CarData.sol\";\r\nimport \"@openzeppelin/contracts/token/ERC721/IERC721.sol\";\r\nimport \"@openzeppelin/contracts/utils/math/SafeMath.sol\";\r\n\r\n\r\n/** @title Car Ownership\r\n  * This contract is the one that is deployed for this dApp.\r\n  * It inherits CarData in order to deploye all the logic,\r\n  * and it adds ERC721 nature to the ticket tokens. In order\r\n  * for that to happen, ERC165 is also necessary.\r\n  * \r\n  * The documentation for all the implemented methods in this\r\n  * file are in its respective interfaces contracts\r\n  */\r\n\r\n\r\ncontract CarOwnership is CarData, IERC721{\r\n    \r\n    using SafeMath for uint256;\r\n\r\n    mapping (bytes4 => bool) internal supportedInterfaces;\r\n    mapping (uint256 => address) tokenApprovals;\r\n    mapping (address => mapping (address => bool)) internal operatorApprovals;\r\n\r\n    function supportsInterface(bytes4 interfaceID) override external view returns (bool){\r\n\t\treturn supportedInterfaces[interfaceID];\r\n\t}   \r\n\r\n    //event Transfer(address indexed from, address indexed to, uint256 indexed tokenId);\r\n    //event Approval(address indexed owner, address indexed approved, uint256 indexed tokenId);\r\n    //event ApprovalForAll(address indexed owner, address indexed operator, bool approved);\r\n\r\n\r\n\r\n    function balanceOf(address owner) override external view returns (uint256 balance){\r\n      require(owner != address(0));\r\n\t\t  return ownerToCars[owner].length;\r\n    }\r\n\r\n    function ownerOf(uint256 tokenId) override public view returns (address owner){\r\n      address carOwner = carToOwner[tokenId];\r\n    \trequire(carOwner != address(0));\r\n\t\t  return carToOwner[tokenId];\r\n    }\r\n\r\n    function safeTransferFrom(address from,address to,uint256 tokenId) override external payable{\r\n        safeTransferFrom(from, to, tokenId,\"\");\r\n    }\r\n\r\n    function transferFrom(address from,address to,uint256 tokenId) override public payable{\r\n\r\n      require(isApprovedOrOwner(msg.sender, tokenId));\r\n\t    require(to != address(0));\r\n\r\n      // Delete token\r\n\r\n\t    if(ownerToCars[from].length == 1) ownerToCars[from].pop();\r\n      else{\r\n\t    for (uint i = 0; i < ownerToCars[from].length-1; i++){\r\n            if (ownerToCars[from][i] == tokenId) {\r\n            \t// Assign last token to the token we are transferring\r\n            \townerToCars[from][i] = ownerToCars[from][ownerToCars[from].length-1];\r\n            \t// Delete duplicate token at the end\r\n            \tdelete ownerToCars[from];\r\n            \tbreak;\r\n            }\r\n        }\r\n      }\r\n      carToOwner[tokenId] = to;\r\n\t\t  ownerToCars[to].push(tokenId);\r\n\r\n\t    tokenApprovals[tokenId] = address(0);\r\n    }\r\n\r\n\r\n    function approve(address to, uint256 tokenId) external{\r\n\r\n      address token_owner = ownerOf(tokenId);\r\n\t    require(to != token_owner);\r\n\t    require(msg.sender == token_owner || isApprovedForAll(token_owner, msg.sender));\r\n\r\n\t    tokenApprovals[tokenId] = to;\r\n\t    emit Approval(token_owner, to, tokenId);\r\n    }\r\n\r\n    function getApproved(uint256 tokenId) public view returns (address operator){\r\n      return tokenApprovals[tokenId];\r\n    }\r\n\r\n    function setApprovalForAll(address operator, bool _approved) external{\r\n      require(operator != msg.sender);\r\n    \toperatorApprovals[msg.sender][operator] = _approved;\r\n   \t\temit ApprovalForAll(msg.sender, operator, _approved);\r\n    }\r\n\r\n    function isApprovedForAll(address owner, address operator) public view returns (bool){\r\n      return operatorApprovals[owner][operator];\r\n    }\r\n\r\n    function safeTransferFrom(address from, address to, uint256 tokenId, bytes memory data) public payable{\r\n      transferFrom(from, to, tokenId);\r\n    }\r\n\r\n    /**\r\n\t * @dev Returns whether the given spender can transfer a given token ID\r\n\t * @param _spender address of the spender to query\r\n\t * @param _tokenId uint256 ID of the token to be transferred\r\n\t * @return bool whether the msg.sender is approved for the given token ID,\r\n\t *  is an operator of the owner, or is the owner of the token\r\n    */\r\n  \tfunction isApprovedOrOwner(address _spender, uint256 _tokenId) internal view returns (bool) {\r\n\t    address token_owner = ownerOf(_tokenId);\r\n\t    return (\r\n\t      _spender == token_owner ||\r\n\t      getApproved(_tokenId) == _spender ||\r\n\t      isApprovedForAll(token_owner, _spender)\r\n\t    );\r\n  \t}\r\n}",
  "sourcePath": "C:\\Users\\ruben\\Documents\\dCars\\contracts\\CarOwnership.sol",
  "compiler": {
    "name": "solc",
    "version": "0.8.11+commit.d7f03943.Emscripten.clang"
  },
  "schemaVersion": "3.4.4",
  "updatedAt": "2022-02-22T09:39:08.472Z",
  "networkType": "ethereum",
  "devdoc": {
    "kind": "dev",
    "methods": {
      "approve(address,uint256)": {
        "details": "Gives permission to `to` to transfer `tokenId` token to another account. The approval is cleared when the token is transferred. Only a single account can be approved at a time, so approving the zero address clears previous approvals. Requirements: - The caller must own the token or be an approved operator. - `tokenId` must exist. Emits an {Approval} event."
      },
      "balanceOf(address)": {
        "details": "Returns the number of tokens in ``owner``'s account."
      },
      "getApproved(uint256)": {
        "details": "Returns the account approved for `tokenId` token. Requirements: - `tokenId` must exist."
      },
      "isApprovedForAll(address,address)": {
        "details": "Returns if the `operator` is allowed to manage all of the assets of `owner`. See {setApprovalForAll}"
      },
      "owner()": {
        "details": "Returns the address of the current owner."
      },
      "ownerOf(uint256)": {
        "details": "Returns the owner of the `tokenId` token. Requirements: - `tokenId` must exist."
      },
      "renounceOwnership()": {
        "details": "Leaves the contract without owner. It will not be possible to call `onlyOwner` functions anymore. Can only be called by the current owner. NOTE: Renouncing ownership will leave the contract without an owner, thereby removing any functionality that is only available to the owner."
      },
      "safeTransferFrom(address,address,uint256)": {
        "details": "Safely transfers `tokenId` token from `from` to `to`, checking first that contract recipients are aware of the ERC721 protocol to prevent tokens from being forever locked. Requirements: - `from` cannot be the zero address. - `to` cannot be the zero address. - `tokenId` token must exist and be owned by `from`. - If the caller is not `from`, it must be have been allowed to move this token by either {approve} or {setApprovalForAll}. - If `to` refers to a smart contract, it must implement {IERC721Receiver-onERC721Received}, which is called upon a safe transfer. Emits a {Transfer} event."
      },
      "safeTransferFrom(address,address,uint256,bytes)": {
        "details": "Safely transfers `tokenId` token from `from` to `to`. Requirements: - `from` cannot be the zero address. - `to` cannot be the zero address. - `tokenId` token must exist and be owned by `from`. - If the caller is not `from`, it must be approved to move this token by either {approve} or {setApprovalForAll}. - If `to` refers to a smart contract, it must implement {IERC721Receiver-onERC721Received}, which is called upon a safe transfer. Emits a {Transfer} event."
      },
      "setApprovalForAll(address,bool)": {
        "details": "Approve or remove `operator` as an operator for the caller. Operators can call {transferFrom} or {safeTransferFrom} for any token owned by the caller. Requirements: - The `operator` cannot be the caller. Emits an {ApprovalForAll} event."
      },
      "transferFrom(address,address,uint256)": {
        "details": "Transfers `tokenId` token from `from` to `to`. WARNING: Usage of this method is discouraged, use {safeTransferFrom} whenever possible. Requirements: - `from` cannot be the zero address. - `to` cannot be the zero address. - `tokenId` token must be owned by `from`. - If the caller is not `from`, it must be approved to move this token by either {approve} or {setApprovalForAll}. Emits a {Transfer} event."
      },
      "transferOwnership(address)": {
        "details": "Transfers ownership of the contract to a new account (`newOwner`). Can only be called by the current owner."
      }
    },
    "title": "Car Ownership This contract is the one that is deployed for this dApp. It inherits CarData in order to deploye all the logic, and it adds ERC721 nature to the ticket tokens. In order for that to happen, ERC165 is also necessary.  The documentation for all the implemented methods in this file are in its respective interfaces contracts",
    "version": 1
  },
  "userdoc": {
    "kind": "user",
    "methods": {},
    "version": 1
  }
}